:1000000000000320D10100006D39000025390000F7
:100010002539000025390000253900002539000068
:100020002539000025390000253900006D39000010
:100030006D39000025390000054D0000094E000013
:100040006D3900006D3900006D3900006D39000018
:100050006D3900006D3900006D3900006D39000008
:100060006D3900006D3900006D3900006D390000F8
:100070006D3900006D3900006D3900006D390000E8
:100080006D3900006D3900006D3900006D390000D8
:100090006D3900006D3900006D3900006D390000C8
:1000A00085240000912400006D3900006D390000A6
:1000B0006D3900006D3900006D390000995600005F
:1000C0006D390000755400006D3900009959000029
:1000D0006D390000A15500006D3900006D39000038
:1000E0006D3900006D3900006D3900006D39000078
:1000F0006D3900006D3900006D3900006D39000068
:100100006D3900006D3900006D3900006D39000057
:100110006D3900006D3F00006D3900006D39000041
:100120006D3900006D3900006D3900006D39000037
:100130006D3900006D3900006D3900006D39000027
:10014000D55200006D3900007D5300006D3900006C
:100150006D3900006D3900006D3900006D39000007
:100160006D3900006D3900009D2400006D390000DC
:100170006D3900006D3900006D3900006D390000E7
:100180006D3900006D3900006D3900006D390000D7
:100190006D3900006D390000C55700006D39000051
:1001A0006D3900006D3900006D3900006D390000B7
:1001B0006D3900006D3900006D3900006D390000A7
:1001C0006D3900006D3900006D3900006D39000097
:1001D0005C4B4CF2205210B51A804DF628121A8052
:1001E00000BF00BF03F0C6FB574B4FF030621A60F0
:1001F000564A9A60564ADA60564B4FF470021A60BB
:10020000554B564A1A60564A136813F4807304D14A
:1002100054490B604FF4A8531360534B1A781107DD
:1002200003D51A7842F008021A70504B5049AA229E
:100230001A70504A504B8B4204D252F8040F43F8C4
:10024000040BF8E74D4B4E4900228B4202D243F893
:10025000042BFAE74B494C4A002352F8230041F89B
:1002600023000133742BF8D1484B494A802103F80D
:10027000011B9342FBD1474B424A1A60464B8A22EC
:100280001A70A3F5805324225A70A0221A709A790A
:100290009207FCD59A79D406FCD4404A937903F0AE
:1002A0000C03082BFAD13E4B60221A7002331A78E5
:1002B000802AFCD1394B01221A715D225A719A7938
:1002C0009006FCD59979354A4906FBD5354B364918
:1002D00019600021596020231370937903F00C03F7
:1002E0000C2BFAD1314B324A1A60324B324A1A6027
:1002F00000225A60072243F8042C304AC3F80C2D20
:1003000062B603F05DFC174B1B68DA0705D52C4875
:1003100003F0E6FB2B4B2C4A1A602C4B1B785B0638
:1003200009D5284C284B22689A4204D1244803F06E
:10033000D7FB0023236005F0B1FB03F021FB04F0A1
:100340000DFEFEE70E20054030800440823F040091
:100350000100002B88ED00E0002008E0030000858C
:1003600010D0034014D0034002D0074000E0074003
:100370009CB8FF1F406B000030ADFF1F9CB8FF1FF3
:10038000D4D2FF1F00A8FF1F0000000000E400E01F
:1003900064E400E008ED00E0005006400040064044
:1003A00001E007404480044000000602048004404D
:1003B000C010070014E000E01FBF02000000202072
:1003C000310000001CE00340A5C3945A00F0074030
:1003D000FFFFFFFFFFFFFFFFFFFFFFFFFFFFFFFF2D
:1003E000FFFFFFFFFFFFFFFFFFFFFFFFFFFFFFFF1D
:1003F000FFFFFFFFFFFFFFFFFFFFFFFFFFFFFFFF0D
:10040000FFFFFFFFFFFFFFFFFFFFFFFFDEF9FFFF23
:1004100010B5054C237833B9044B13B10448AFF33E
:1004200000800123237010BD9CB8FF1F0000000056
:10043000446B0000084B10B51BB108490848AFF3E6
:1004400000800848036803B910BD074B002BFBD0A0
:10045000BDE81040184700BF00000000A0B8FF1F13
:10046000446B00009CB8FF1F0000000010B504465C
:1004700004F0E8FE204610BD002310B4114C417278
:10048000026104600372C36041B1194600E0026971
:1004900042F82310427A01339A42F8DC0A4B1A6878
:1004A0000AB90CE01A465369002BFBD150610023B6
:1004B00043618380C38083725DF8044B704718608A
:1004C000F5E700BF9464000000CFFF1FF8B50521D9
:1004D0003148324D324E334F03F0B0F8324804F019
:1004E00029FDA021314804F07DFD314800F0CCFD0C
:1004F00081212F4800F064FE2E492F4A2F4B287E81
:10050000DF614FF480448C61CC610C624C6244F634
:10051000CC410224548651620024596201211C629C
:1005200059864FF08043D7611462254F254A736284
:1005300010EA0103B761F26115D1EA8B2B6202B9AF
:10054000E98340F0010028761F4B2049204ADA61F8
:100550004FF4004400224FF480308C614A621A62EA
:100560005A865862F8BD2946234641F8204F40FA82
:1005700003F212F0010F03F1010306D00A687F3283
:10058000D2090132944238BF1446082B01F104010C
:10059000EDD1EC83D8E700BF986400005CBAFF1F80
:1005A00024C8FF1FC09C8D02A8AFFF1F0002FF1FC1
:1005B000ECC9FF1F5CC9FF1FCCB8FF1FF8C9FF1FA4
:1005C0001016AC0D306FA50D88B9FF1FECC8FF1FCA
:1005D000D974040008B58121294800F0F1FD294BA8
:1005E000D3ED007AB5EE007A67EE877AF5EEC07A41
:1005F000F1EE10FA3AD49FED247AF4EEC77AF1EED8
:1006000010FA20DC9FED217A2149224A27EE877AD1
:10061000BCEEC77A17EE103A8B4282ED077A13D8F8
:10062000F5EEC07A4FF48033F1EE10FA536223D422
:100630009FED157AF4EEC77AF1EE10FA07DD164A4F
:10064000134BD36108BD134A114BD361E8E79FED0B
:100650000F7A0F49104A67EE877AFCEEE77A17EEB9
:10066000903A8B42C2ED077AEAD808BD094B0021C7
:100670004FF48032D9615A62074B0022DA6108BD1B
:10068000ECC9FF1F34ADFF1FA655AC464B24BE4737
:100690000000FE7FCCB8FF1FF8C9FF1F2DE9F04F07
:1006A000DFF8B0B2AA4BCBF80030002102200BF1EA
:1006B000180283B00B468BF80900CBF810208BF89A
:1006C0000810CBF80C105C4600E0226942F82310B9
:1006D0009BF809209F4801339A42F6DC9E4B1A682A
:1006E0000AB975E31A465369002BFBD1C2F814B05E
:1006F00000269A4B9748DFF8CC92CBF80030CBF825
:100700001460ABF80460ABF806608BF80A6001F087
:100710003BF9934BDFF8B082924A1A603146324679
:100720000A2448461C72904F904C914DDFF89CA2D1
:10073000FFF7A2FE32463146404689F81860C9F8F4
:100740001C60C9F80070FFF797FE884BC8F8186066
:1007500003F128021846874BC8F8003004214FF0F7
:100760008043C8F82830C8F81C60C8F82060C8F872
:100770002460C8F82C60A8F83060A8F83260A8F8A7
:100780003460FFF779FE4FF48033324631467A48C1
:10079000A361E361236263622560FFF76DFE764B20
:1007A000744C1C60324631464FF0804473489E6161
:1007B000DE611E625E629C62DE621E865E869E86D0
:1007C000FFF75AFE644B6B491A686C4B8AF8096054
:1007D00019609E61DE611E625E629C62DE621E8640
:1007E0005E869E865A4BCAF80030CAF810608AF8B6
:1007F0000860CAF80C60584B0AB9EBE21A46536914
:10080000002BFBD1C2F814A05D4E5E4B35885E4ACA
:10081000CAF800200024013503F11802184601210E
:100820005A4BCAF81440AAF80440AAF806408AF8BD
:100830000A403580CAF81C500193CAF81840FFF7E7
:100840001BFE504B524A1A60524B494E03F128028C
:1008500018464C4B47F6FF71D9834FF400450421ED
:100860001D84FFF709FE4B4B4B481E604FF480354B
:10087000224621469D61DD611D625D62FFF7FCFD40
:10088000454B46481F60224621461C76DC61FFF737
:10089000F3FD434B03F128021846404B04211F602F
:1008A0001C76DC61FFF7E8FD3E4B314F03F1180287
:1008B00018463B4B02211E609D61DD611D625D6239
:1008C000FFF7DAFD374B384A1A60384B384E03F1E0
:1008D000340218460221FFF7CFFD344B3548364A23
:1008E0009861DA619C62DC621C63344B344903F129
:1008F00028022E4B4FF4805018625962A2F1280052
:1009000004211E60FFF7B8FD019B2C481C72856115
:10091000C561056245624FF0010E0D4D076003F59C
:1009200054611D6022462046DC6083F809E01961AD
:100930001D4600E0296941F82200597A134C013222
:100940009142F7DC044A1168002942D145E200BF18
:1009500094640000DCC7FF1F00CFFF1F006500008C
:10096000ECC9FF1FCC640000F464000030CAFF1F14
:10097000B464000024650000CCB8FF1FF8C9FF1F55
:100980004CCBFF1F38C9FF1F0C6500005CBAFF1F6E
:10099000A86400005CC9FF1F24B9FF1FC4C8FF1F63
:1009A00094C9FF1FCCC9FF1FC06400007CCAFF1F91
:1009B000E864000000B28E04E8728E04FCB9FF1FE8
:1009C00080F9855A60B9FF1F88B9FF1F04B9FF1F5E
:1009D00011464A69002AFBD14B610024B84A5C6188
:1009E00021469C80DC809C721A60B6481C764FF4CD
:1009F00050625C839C83DC83019305F037FBB24B30
:100A0000B24DB34F03F1340218460221FFF734FD13
:100A1000AD4BB049B04A1E609C62DC621C639961B8
:100A2000DA61AE4BAE49AF4E03F12802A64B4FF44C
:100A3000805018625962A2F128000421FFF71CFDC2
:100A4000A64BA94A1A604FF4803228469A61DA61AF
:100A50001A625A62A54B6B602C72C5F800906C72DA
:100A6000EC602C7404F0BAFBA14AA249DFF8DC92D6
:100A7000284605F001F8A04B7B6038464FF0010393
:100A80007B723C72C7F80080FC603C7404F0A6FBEB
:100A9000974A9849994D384604F0EEFF934B73609E
:100AA00030464FF0010373723472C6F80080F46070
:100AB000347404F093FB8E4A8E49DFF89482904F91
:100AC000304604F0D9FF894B2B6028468D4B6B6074
:100AD0002C726C72EC602C7404F080FB844A8549A3
:100AE000894E284604F0C8FF884BC9F800304846B4
:100AF000874BC9F8043089F8084089F80940C9F8DB
:100B00000C4089F8104004F069FB794A7949814D1D
:100B1000484604F0B1FF804BC8F800307C4BC8F861
:100B2000043040464FF0010388F8093088F8084047
:100B3000C8F80C4088F8104004F050FB6D496C4A2E
:100B4000DFF81092404604F097FF714B7B60022261
:100B500038463C72C7F800A0FC603C747A7204F01E
:100B60003DFB634A6349DFF8F0A1DFF8F0813846C6
:100B700004F082FF664B33603046684B736034721A
:100B80007472F460347404F029FB594A5949644F73
:100B9000304604F071FF634B2B60604B6B6028465E
:100BA0004FF001036B722C72EC602C7404F016FB96
:100BB00050494F4A5C4E284604F05EFF5B485C4A51
:100BC00002604D4A047242604472C460047404F0CE
:100BD00005FB4849464A5548564D04F04DFF5648D6
:100BE000454A0260554A42604FF001020472427267
:100BF000C460047404F0F2FA3E493D4A4E4804F0E1
:100C00003BFF4F48454A02604C4A047242604472BE
:100C1000C460047404F0E2FA3649354A484804F0E6
:100C20002BFF4848454A0260474A047242604472BA
:100C3000C460047404F0D2FA2D4A2E49414804F0ED
:100C40001BFF264BCAF8043050463F4BCAF8003011
:100C50008AF808408AF80940CAF80C408AF810401F
:100C600004F0BCFA224A2349504604F005FF164B13
:100C7000C9F804304846019BC9F8003089F808409B
:100C800089F80940C9F80C4089F8104004F0A6FA28
:100C90001849174A484604F0EFFE0B4BC8F80030DD
:100CA00003220E4BC8F80430404688F8092088F823
:100CB0000840C8F80C4088F8104004F08FFA4FE064
:100CC000186500009CBAFF1F24C8FF1FC0B9FF1F92
:100CD000D4B9FF1F00B28E04E8728E04ECC8FF1F67
:100CE00080F9855AE8B9FF1FB464000030CAFF1FBD
:100CF00030ADFF1F6D04000094C9FF1F24C9FF1F02
:100D0000B0C8FF1F38C9FF1FA0C7FF1FCCB8FF1F07
:100D10005CC9FF1FB4C7FF1FF8C9FF1FCCC9FF1F65
:100D200074C8FF1F24B9FF1F88C8FF1FC8C7FF1F53
:100D3000C4C8FF1F9CC8FF1FB8B8FF1F7CCAFF1F95
:100D4000FCC7FF1F10C8FF1FFCB9FF1F34BAFF1FED
:100D500048BAFF1F4CB9FF1F68CAFF1F60C8FF1FBA
:100D60001F4A2049404604F087FE1F4B3B6038462F
:100D7000019B7B603C727C72FC603C7404F02EFA38
:100D8000174A1849384604F077FE174B347230463C
:100D900086E808087472F460347404F01FFA104A8C
:100DA0001049304604F068FE4FF001036B720E4BA1
:100DB0002C72284685E80808EC602C7404F00EFAC2
:100DC000074A0849284603B0BDE8F04F04F054BE76
:100DD00018608DE4C3F800A016E51460FDE500BFBF
:100DE00030ADFF1F6D040000ECC8FF1F10B50446B6
:100DF00003F00AFF204610BD024A0349034804F0ED
:100E00003BBE00BF30ADFF1FED0D0000B8CAFF1F95
:100E1000024A0349034804F02FBE00BF30ADFF1F54
:100E2000ED0D0000C0CAFF1F70B50021064604F09A
:100E3000A7F9C0B1B6F91E40B6F92010031D00F5A0
:100E4000827533F9022B9442A8BF14469142B8BF71
:100E500011469D42F5D80123F48331843377BDE8F0
:100E6000704004F049B970BD2DE9F8434FF0000817
:100E7000064600F11805474641463046002F4FD040
:100E800004F07EF9F0B12C68B4F5803F07F104015D
:100E900000F1040E07F5827C27D05EF8042B34FBAA
:100EA00002F334FB12F903F30F0209F30F03C2EA52
:100EB00003430A6893FA12F341F8043B8C45ECD8DB
:100EC00004F01AF908F10108B8F1040F05F104055E
:100ED000D2D1002F40D030463946002204F036F9F6
:100EE0003846BDE8F84304F007B907F10C0100F1FA
:100EF0000C0451F8083C54F8082C93FA12F341F80A
:100F0000083C54F8042C51F8043C93FA12F38C4535
:100F100041F8043C04F1080401F10801E9D8CFE7E5
:100F200004F03AF907460028CCD02868B0F5803F95
:100F3000C8D0391D07F582740B6830FB03F230FB13
:100F400013F302F30F0203F30F03C2EA034341F862
:100F5000043B8C42F0D8B5E7BDE8F883024A034968
:100F6000034804F089BD00BF30ADFF1FED0D000048
:100F7000C8CAFF1F2DE9F8430021054604F00CF90B
:100F800001210446284604F0FBF80646BCB3D0B362
:100F900004F5827E231D9E4524D90C3004F10C01FA
:100FA00011E90C0050F8089C50F8048C12FB39FC35
:100FB0002CF3CF3C12FB09F222F3CF32C2EA0C42EF
:100FC00013FB38FC2CF3CF3C13FB08F323F3CF3394
:100FD000C3EA0C438E4501E90C0000F1080001F161
:100FE0000801DDD828460022214604F0AFF820464B
:100FF00004F082F83046BDE8F84304F07DB80028DC
:10100000F9D1BDE8F8832046BDE8F84304F074B890
:10101000024A0349034804F02FBD00BF30ADFF1F53
:10102000ED0D0000D0CAFF1F002070470020704760
:10103000F8B5144C037A242908BFC2805B0001254F
:101040000E462046C1F30721174684F83B3084F84A
:101050005E5084F85D5001F01FF8F1B2204601F0B7
:101060001BF8C7F30721204601F016F8F9B2204615
:1010700001F012F82946204601F07AF9B0FA80F022
:101080004009F8BD80AEFF1F38B501250446057143
:10109000334801F015F8052002F040FD204644F2E7
:1010A00060023021FFF7C4FF20466C222621FFF7A3
:1010B000BFFF20464FF4F9722821FFF7B9FF204601
:1010C00040F622722C21FFF7B3FF204644F246423D
:1010D0003C21FFF7ADFF204640F237122421FFF7F5
:1010E000A7FF204644F2FF023021FFF7A1FF732241
:1010F00002212046FFF79CFF4FF4C87002F00EFD5E
:10110000204641F61D522E21FFF792FF0422114680
:101110002046FFF78DFF20464FF498720621FFF717
:1011200087FF204610220A21FFF782FF2046002277
:101130000E21FFF77DFF204643F63C421021FFF7CA
:1011400077FF204647F67F722221FFF771FF204686
:1011500036222421FFF76CFF6572284638BD00BF98
:1011600080AEFF1F10B5044619B1012911D000202F
:1011700010BD55222021FFF75BFF0028F7D0E28841
:1011800042F00402204692B22421BDE81040FFF74D
:101190004FBF40F273122A21FFF74AFF0028E6D022
:1011A000882220212046FFF743FF0028DFD0E28875
:1011B000204622F004022421BDE81040FFF738BF8A
:1011C00038B50546F1B1802903799ABFC1F1800491
:1011D00044EA0424002433B9224628462221BDE8EB
:1011E0003840FFF725BFC288002322F010020371A8
:1011F0002421FFF71DFF224628462221BDE8384062
:10120000FFF716BF0123037147F67F722221FFF714
:101210000FFFEA8842F01002284692B22421BDE86E
:101220003840FFF705BF00BF9FED057ADFED057A77
:10123000E0EE077AFCEEE77A17EE901AFFF7C0BFF0
:1012400000000143EE7CFF3E024A0349034804F0DC
:1012500013BC00BF30ADFF1FED0D0000D8CAFF1F4B
:1012600038B5074D074C08482A46214604F004FCCF
:101270002A4621460548BDE8384004F0FDBB00BFC2
:1012800030ADFF1FED0D0000E0CAFF1FE8CAFF1FD1
:10129000024A0349034804F0EFBB00BF30ADFF1F13
:1012A000ED0D0000F0CAFF1F024A0349034804F095
:1012B000E3BB00BF30ADFF1FED0D0000F8CAFF1FFC
:1012C0002DE9F04F83B08846846A0190D0F81CC0A5
:1012D000D0F824A0C16A076BDDF8309008F5807063
:1012E0002646834638F902EB4FEA0E3E5CFB17F4C4
:1012F00001EB84045AFB17F57644C4EB6606A6EBB3
:1013000085065CFB16F007EB80005CFB10F104EB3C
:1013100081015AFB10F5C1EB0E07A7EB85055CFBBD
:1013200015F700EB87070C4424F34F34384420F3BF
:101330004F30354425F34F35C34522F8024B7646EE
:1013400023F8020B29F8025BCCD1019A1346C3F8AB
:1013500028E0D162176303B0BDE8F08F2DE9F04FAC
:1013600085B088468169019101460C460390006A68
:101370000290D1F824B08F6A206BC96ADDF838A0DA
:10138000DDF83C9008F58074009432F9026B029C01
:1013900006FB04F626F0784505F10065ED0055FBE7
:1013A00015F5284C55FB14F5ED00013CF616C6F179
:1013B00006062C443441019D55FB14F4224D38F9A6
:1013C00002CBAC42A8BF2C4624024FEA0C3C54FB93
:1013D00010F601EB86065BFB10F107EB0C0EC6EB7B
:1013E0006E0EAEEB810E54FB1EF500EB850554FB33
:1013F00015F106EB81015BFB15F0C1EB0C07A7EBC8
:10140000800754FB17F405EB84000E4426F34F3697
:10141000054425F34F35BE442EF34F3E009C23F880
:10142000026B44452AF8025B674629F802EBACD10F
:10143000039A1346C3F828C0D162106305B0BDE813
:10144000F08F00BFABAAAA2AE71052002DE9F043A3
:10145000002183B0044603F093FE01210546204697
:1014600003F08EFE0646002D3CD003F0F1FD07464A
:1014700000283CD003F0ECFD8046002842D003F069
:10148000E7FD8146002851D0002E45D0021D08F10D
:1014900004030192009320463B1D321D291DFFF7D6
:1014A0005DFF304603F028FE284603F025FE0022AB
:1014B0003946204603F04AFE384603F01DFE01225D
:1014C0004146204603F042FE404603F015FE20460A
:1014D0000222494603F03AFE484603B0BDE8F04315
:1014E00003F00ABE0028F8D103B0BDE8F083284617
:1014F00003F002FE002EF7D0304603B0BDE8F04303
:1015000003F0FABD284603F0F7FD384603F0F4FD7A
:10151000002EE9D03046F0E7031D00933A1D08F194
:101520000403291D2046FFF7CBFEBDE7284603F044
:10153000E3FD384603F0E0FD404603F0DDFD002EFC
:10154000D2D03046D9E700BF024A0349034804F02D
:1015500093BA00BF30ADFF1FED0D000000CBFF1FA1
:10156000F8B5054603F074FD002800F092802A7E4D
:101570000446031D00F58276002A39D0286AE969FD
:101580006A6A81FAA0FEEFF300873F0140D49EFB18
:10159000F2FEBEF17F0F54DD04F1140702E0E969A9
:1015A0006A6A103711448818C0EA21411044831830
:1015B000C3EA2040134403EB020ECEEA23439644D1
:1015C0007244EA61C2EA2E42BE4247F8101C47F854
:1015D0000C0C47F8083C47F8042CE0D82846214674
:1015E000002203F0B3FD2046BDE8F84003F084BDBF
:1015F000EA69C2EA22421A605A609A60DA601A61A5
:101600005A619A612033B34243F8042CF3D3E5E7DF
:101610005AB90022E8612A76C0EA2042B342DDD2FC
:1016200043F8042B9E42FBD8D8E7571C022FB0D9B1
:1016300090FBF2FE91FBF2F7C7EB0E0EBEF17F0FAF
:10164000AADCBEF1010F18DD70461F4601E0E96912
:101650006A6A11440A44EA610238C2EA2142012856
:1016600047F8042BF3DCAEF1020E4FEA5E014A1C90
:10167000286AAEEB410E03EB8203BEF1000FC8D027
:10168000E9696A6A0A44C0EA22421A60286A043395
:10169000BFE7F8BD024A0349034804F0EDB900BFB3
:1016A00030ADFF1FED0D000008CBFF1F024A0349BC
:1016B000034804F0E1B900BF30ADFF1FED0D00009D
:1016C00010CBFF1F024A0349034804F0D5B900BFFD
:1016D00030ADFF1FED0D000018CBFF1F024A03497C
:1016E000034804F0C9B900BF30ADFF1FED0D000085
:1016F00020CBFF1F2DE9F84F344B35481A68354988
:1017000012681B790B70824229D2334B1B784BBB7A
:10171000DFF8D4A0DFF8D490DFF8D480DFF8D4B0BD
:10172000DAF80060D9F80070B8F80040BBF8005053
:10173000002E3BD09FB33A1D311D02EB450201EB59
:10174000440101F0FFFD403540347F2C1BD8A8F840
:1017500000407F2D0AD8ABF80050BDE8F88FA0F507
:101760008070D5E71D4B01221A60D1E7002438466E
:10177000ABF8004003F0C0FC194B1A68C9F8002010
:101780001C60BDE8F88F00243046A8F8004003F044
:10179000B3FC144B1A68CAF800201C60D9E7311D4D
:1017A00001EB440101F0EDFD4034CEE737B1391DC6
:1017B00001EB450101F005FE4035C6E739464FF41F
:1017C0008072BDE8F84F04F051BC00BF2CCBFF1F66
:1017D00080A5FF1F1F80004044CBFF1F08E200E0F0
:1017E00040CBFF1F48CBFF1F3CCBFF1F34CBFF1F5D
:1017F00028CBFF1F38CBFF1F70B50021044603F034
:10180000BFFC80B172B61C4A1368002B29D01B495B
:101810000D6805B31A4E156000220860328062B66A
:10182000184603F069FC2046012103F0A9FC88B1A9
:1018300072B6144A1368CBB113490C6874B1134DD6
:101840001460002208602A8062B61846BDE8704025
:1018500003F052BC70BD086062B6E4E7086062B68F
:1018600070BD074910600B8062B6DCE70749106065
:101870000B8062B670BD00BF3CCBFF1F48CBFF1F83
:1018800028CBFF1F34CBFF1F40CBFF1F38CBFF1FE0
:10189000284B29491A68294842F400421A600A680C
:1018A00042F002020A601A6842F002021A600368FB
:1018B000002B3EDB224B1B68002B3ADB214A4FF00A
:1018C000804313601368002BFCDBF0B51E4C1F48EF
:1018D000DFF8A8E01E491F4B1F4A204F204E214D24
:1018E0004FF2FE0CC4F800C0002404600120CEF8C2
:1018F0000000DFF88CE0C1F800E04FF4803119609F
:10190000194B1360DFF87CE0184A3A6034602860B5
:1019100000F18E40CEF80000154CB9671548164905
:1019200046F8503C4FF4C0632A61236003600B60AB
:10193000F0BD70473C8004404080044000F002400D
:1019400080F0024000F1024004F1024060F00240E9
:1019500008F002400CF0024010F0024014F0024087
:10196000E0F0024084F002401B1F0100001F1F1F17
:1019700008B004400CB0044018B0044004F0024029
:101980000100000788F00240F8B5274C274E20469A
:10199000012103F0D3F8264A264B002515601D606F
:1019A000FFF776FF244B254A25494FF4C0601860A5
:1019B000236802201A6098802279196102F180421E
:1019C00002F5043240F20117DF80DE604FF48071CF
:1019D00006278D26D9829D82D9839D619F83986039
:1019E0001570167003F05EFC2279164B16491870BC
:1019F00053119B00174603F160430F70134D144EB3
:101A0000144C02F11000012103F5614302F01F02A2
:101A100001FA02F24FF080770F492F602C6046F8F0
:101A200020101A60F8BD00BF2CCBFF1F00FEFFFF87
:101A30003CCBFF1F34CBFF1F04B0044080A4FF1F2A
:101A400022F0024044CBFF1F1B80004000F0024008
:101A500000A8FF1F01000090F5160000024A03498C
:101A6000034804F009B800BF30ADFF1FED0D0000C2
:101A70002CCBFF1F2DE9F84385690DB9BDE8F8832C
:101A8000064603F0E5FA04460028F7D0F36904306F
:101A900004F5827744F2A71111FB13FEDFF8B8C0FA
:101AA0009AB24FEADE334FEA0E4E01FB02330EEAE2
:101AB0000C0C634423F0004202EBD37335FB03FEAE
:101AC00011FB13FC244A4FEA0C4808EA020202EB1D
:101AD000DC329BB201FB032323F0004202EBD37301
:101AE00035FB03F2CEEA024E11FB13FC1A4A4FEA11
:101AF0000C4808EA02029BB202EBDC3201FB032233
:101B000022F0004303EBD27235FB02FC11FB12F80A
:101B1000114B4FEA084909EA030303EBD83392B2A9
:101B200001FB023222F0004303EBD27335FB03F2D8
:101B3000CCEA024240F808EB874240F8042CABD8CC
:101B40003046F3612146002203F000FB2046BDE849
:101B5000F84303F0D1BA00BF0000FF7F024A0349F7
:101B6000034803F089BF00BF30ADFF1FED0D00003B
:101B700050CBFF1F2DE9F84F478B848B0137B7F50A
:101B8000507F26BF00252F46BDB2A742064600F073
:101B900096800021304603F0F3FA07F11003A742C4
:101BA00046F82300758380F09E8007F550752B1B47
:101BB000F58BAB4212D95D1B4FF0000906EB840890
:101BC0000134D8F8400018B103F096FAC8F84090F4
:101BD000B4F5507F28BF0024013DEFD10025B48328
:101BE00006F120082C460DE009F1100956F82910DD
:101BF00019B1EAB2304603F0A9FA0135082D08F10F
:101C000004085AD0337E2B41DB07F6D5D8F80020E4
:101C10004FEAD2194F4538BF07F5507302F07F0BDA
:101C20002CBFC9EB0709C9EB0309BBF1000FDBD0DF
:101C300003F00EFA82460028DFD0031DB9F1000F31
:101C400053D140F23F32103256F82220002A53D0AE
:101C500002F5827EAEEB4B0BDE450FD90AF1020195
:101C60005A4632F9020B21F8020F9645F9D86FEA6D
:101C70000B02724422F001020232134409F11009EE
:101C80000AF5827056F82920002A4DD0834202F1CD
:101C9000040205D232F9021B23F8021B9842F9D83C
:101CA000EAB25146304603F051FA0135504603F08E
:101CB00023FA082D08F10408A4D1BDE8F88F00EB41
:101CC0008708D8F8400008B103F016FA7C1CB4F578
:101CD000507F7FF45EAF0021304603F051FA0024BC
:101CE000C8F8400075833B1B62E709F1FF321032F0
:101CF00056F82220002AABD103EB4B029342BDD20F
:101D0000194621F8024B8A42FBD8CAEB0202053A77
:101D100022F0010209F110090232134456F8292079
:101D20000AF58270002AB1D18342B9D223F8024B5E
:101D30009842FBD8B4E700BF2DE9F04F436AC4696D
:101D4000866985B02BB906EBC414846105B0BDE883
:101D5000F08F0546D0F8208003F07AF90746002876
:101D600000F04781B5F9323006EB0802009200F12D
:101D70000408082B31D8DFE813F09B00B8000001FD
:101D800014010900C500DB00E9005000EE6A002ED6
:101D900000F02D81D5F824C0009900F5827E4046E0
:101DA0000A0E531CB3F5807F14BF5B000023C1F300
:101DB0000F29F35E36F9122009FB03F3C9F58039C8
:101DC00009FB023353FB0CF320F8023B704521441E
:101DD000E6D1009B03EBC41300932C6A009AB5F97B
:101DE0003430141BAC616BB107F5827101E0B5F9B9
:101DF0003430B8F90020134403F30F0328F8023BF2
:101E00004145F4D828460022394603F09FF9384668
:101E100005B0BDE8F04F03F06FB9AB6ACDF80880AC
:101E20004FEA5309190C6FEA09020192C1F57F4389
:101E30004FF0FF3A4646FF33D5F824C0BAFBF3F320
:101E4000063007F5837B009ABAFBF1FA03979E46AA
:101E5000DDF8048020E0C9EB02073F0C0EFB07F71A
:101E60006FF0004109EB0203C91B1B0C09140AFBAC
:101E700003F30CFB01F103F1004390454FEA2141CC
:101E80004FEA234340F2AE80318002308345224442
:101E900006F1020600F0B280130C0AFB03F31B0CE0
:101EA0000CFB03F391454FEA1343D4D93380ECE79D
:101EB000D5F824C0554E009900F5827E40460B0EA1
:101EC0005A1C36F9139036F91220C1F30F2ACAF5BD
:101ED000803309FB03F30AFB023353FB0CF320F8B6
:101EE000023B86452144EAD173E76E6A009A00F509
:101EF0008270434636FB12F123F8021B83422244D0
:101F0000F8D166E76E6A26F34F06A86A009A0FFAC0
:101F100086FEBB1D764207F5837190428CBF23F885
:101F200002EC23F8026C02338B422244F5D150E7D5
:101F3000686A009A07F58276C043434630FB12F187
:101F400023F8021BB3422244F8D142E700F5827A1B
:101F5000009BC14603E0D14533463FF43AAFB5F9A3
:101F6000302029F8022BE618F5D3686A03F036F81A
:101F70006B6AA0EB63002886EDE76E6A26F34F06D6
:101F8000009A30B2BB1D764207F58371002AB4BFB8
:101F900023F8026C23F8020C023399422244F5D153
:101FA00017E7811DD5F824C0009A00F5837009E079
:101FB0000CFB03F31B1421F8023C0231884222443B
:101FC0003FF407AF930F013B012B4FEAE233EFD809
:101FD000D30BC3F57F43FF330CFB03F31B0C21F83A
:101FE000023CEAE70CFB03F31B1433804DE703F0DC
:101FF00083F8AB6903EBC413AB61A7E6009BDDF884
:102000000880039F03EBC4130093E6E658660000C4
:102010000020704790F8392090F83800101A704767
:1020200090F8383090F839209A4205D95A1C034468
:1020300080F83820187E70474FF0FF30704700BF9F
:1020400090F8383090F839209A4286BF1B18187ED5
:102050004FF0FF30704700BF704700BF38B50546EE
:10206000B0F85E0090B195F85D301446C3F12102DE
:1020700094420CD805F13B001844224601F0DEF9E9
:1020800095F85D30234485F85D30204638BD012049
:1020900014462871EEE700BFB0F85E306BB190F8DF
:1020A0005D30202B07D8C218013380F85D30012045
:1020B00082F83B107047012303710020704700BF76
:1020C0000023426980F8383080F8393080F85C307D
:1020D00080F85D3080F85E3080F85F3006CA30B43A
:1020E0000D68046943662A4383660A60A3704269E7
:1020F00090F861301649146813441D7A5B7B01EB3C
:10210000C5051B026D6803F4E06343F064032B60B4
:1021100090F8623013449D7CDB7D01EBC5011B020E
:10212000496803F4E06343F064030B60216853687B
:10213000194205D003692C225A70036904229A714E
:10214000036920225A71036980229A7030BC70475B
:102150005C68000038B50269D478E4B2E10605464F
:1021600024D51023D37063061FD504F0040404F0B3
:10217000FF03002C5AD042496A6E00230B7085F889
:102180005D30002A66D0904795F85D30002B61D015
:102190002B69D0229A702B6995F83B201A712B6914
:1021A000012285F85C200222DA7038BD04F0400379
:1021B00003F0FF00002BD8D19379DBB203F060016C
:1021C00060294ED0937803F0100303F0FF01B3B100
:1021D00014F0010437D195F85C3095F85D10994200
:1021E0004BD9591C2B4485F85C1093F83B30137184
:1021F0002B69D0229A702B690222DA70D5E785F814
:102200006010937943F0200393712B6995F839108E
:102210001A791F29D2B2C6D8194800780028C2D02E
:102220006818013185F839100276BCE72A6985F80B
:102230003930C02393702B69114A1979012111702B
:102240000222DA70B1E7C02393702B691A79022257
:10225000DA70AAE70122002385F85D2085F83B307B
:1022600096E703F0DF039371AB6E23B185F8380076
:1022700095F8390098472A69A4E71471B8E700BFB8
:1022800058CBFF1F2DE9F047374FDFF8E0903B6850
:10229000026982B006460093DDF8008000214FF409
:1022A0009675D3789B065BD53B680193019BC8EB81
:1022B00003030F2BF5D949B1102BF2D000209070F9
:1022C000336980229A7002B0BDE8F087726996F88F
:1022D000613013440521187A01F01AFC726996F8EE
:1022E00061301344012193F812A0504601F010FC14
:1022F00009240021504601F005FC2B46013BFDD18D
:102300000121504601F0FEFB2B46013BFDD1013C73
:10231000EFD1706996F8611001444FF416720C7A8F
:102320004B7B09EBC4011B02496803F4E06343F0F3
:1023300064030B6096F862300344997CDB7D09EB03
:10234000C1011B02496803F4E06343F064030B60BE
:10235000013AFDD13269D3789B064FF00101A3D435
:10236000012002B0BDE8F087ECCDFF1F5C680000E3
:10237000F0B503691222DA700269937803F0200342
:1023800085B004460D46002B5ED0B42393703C49C3
:1023900022690B680093009E05E00B680193019B86
:1023A0009B1B042B42D8D37803F0200303F0FF00DB
:1023B000002BF2D094F85D30002B31D04FF0000E9E
:1023C0004FF0020C04EB0E0393F83B3013710B68D3
:1023D0000393039F206907E09B060DD50B680293CA
:1023E000029BDB1B052B28D8C378DBB203F002026B
:1023F00002F0FF06002AEFD080F803C02669F378C8
:10240000DBB2DF0632462DD49F062BD5DB0731D455
:102410000EF1010E94F85D305FFA8EFE7345D1D84F
:1024200000201DBB002384F85E3004E09070236917
:1024300080229A70042005B0F0BD86702369802246
:1024400004209A7005B0F0BD03F0FF06FFF71AFFF5
:1024500010B9042005B0F0BD236984F85F60B02294
:102460009A7094E78023B3700420DAE7266980230A
:10247000B370D7E7BEF1000F0CBF02200320F6E7D0
:10248000ECCDFF1F0148FFF765BE00BF80AEFF1F08
:102490000148FFF75FBE00BFECAEFF1F0148FFF72A
:1024A00059BE00BF14AEFF1F10B4047F4160022C60
:1024B000C26003D05DF8044B02F0C2BB83685DF8D4
:1024C000044B1847F0B4464B464A986B5C6B017955
:1024D0001170454922790A701A6B00790870002A38
:1024E00046D05968C9688A423ED82168CC8B2404FA
:1024F00002F1FF3065D4C0F30E00C883C88B80B2F0
:10250000C882996B0968C88B000452D4C2F30E00CC
:10251000C883C88B002480B212F1FF32C88218BF72
:1025200001221C63596B2E4809680D6800F12C04C8
:10253000A54236D00068C46814F0804F0C680D685E
:1025400015BF248824780235013544F000440D601D
:102550004463996B254B09791970214912B14A6B73
:1025600012791A70F0BC7047521A1A630122D9E727
:10257000D86B196805681E4C0A63CC62CC682D685C
:102580001C4E24F080440327B542CC6083F82D70A4
:102590001FD1037F4260022BC2601ED0F0BC02F04C
:1025A0004FBB016890F82C00CC6840F000404863B5
:1025B000CFE7CC8BC2F3080004F47E442043C883E9
:1025C000A7E7CC8BC0F3080004F47E442043C88303
:1025D00094E72B461146F0BC18478368F0BC1847B7
:1025E00058AFFF1F1F8000401C8000401B80004030
:1025F00000000FFFA9240000704700BF064B074AE8
:10260000DA620221002259609A7083F8242083F84C
:10261000302083F8322070475CCBFF1F48660000F3
:1026200070B51A4C23780BB9012070BD184D194BA9
:10263000286819680378FE2B17D0174A00F0DCFCD5
:1026400088B1164E316819B900232370012070BD7E
:1026500028680378FE2B0FD00F4A00F0CDFC10B194
:1026600000233360F0E7002070BD0B4800F002FE4D
:10267000B0FA80F04009E3E7074800F0FBFDB0FA4C
:1026800080F040090028EBD1EDE700BFB8CDFF1F77
:10269000B4CBFF1F98AFFF1FB8CBFF1FB0CBFF1FFE
:1026A00070B5124D2B6883420E4611D00446FFF7D9
:1026B000B7FF08B9002070BD0D4B18680378FE2BDA
:1026C0000CD00C4A214600F0D1FB0028F2D02C603F
:1026D000094B197831431970012070BD2146054816
:1026E00000F046FDB0FA80F04009EEE798AFFF1F1A
:1026F000B4CBFF1FB8CBFF1FB8CDFF1FF8B590F8C4
:102700002030C469102B1A4B05460E4617461B682D
:1027100016D004EBD1149C4216D106F07F06154A60
:1027200042F826701449287E0A78012842F00102F6
:102730000A7018D9A968114A0B4413600120F8BD2A
:1027400004EB11249C4208D000212046FFF7A8FF8B
:1027500050B195F82030102B07D1F6B2054A234628
:1027600022F81670DEE70120F8BD2346D5E700BF4A
:1027700098AFFF1FB8CBFF1FB8CDFF1FB0CBFF1F17
:10278000C36801338B4218D370B590F82030102BFA
:10279000154B044616460D46C0691B680FD000EB6A
:1027A000D11098420FD105F07F01104B53F8213022
:1027B00023F070433360012070BD0020704700EBB0
:1027C0001120984207D00021FFF76AFF50B194F81A
:1027D0002030102BE7D1E9B2044B33F811303360CD
:1027E000012070BD002070BD98AFFF1FB8CBFF1F48
:1027F0002DE9F04F176883B06FB301374FF0000A2F
:10280000C36803F1010813B38B46064691463C4664
:10281000002505E01C461F46F3680135AB4216D97A
:10282000A04538BF0224214601AA304638BF2746BA
:10283000FFF7A6FF631CD91B48B1019A002AE9D112
:102840008B4510D01C46F3680135AB42E8D8002018
:1028500003B0BDE8F08FA1F1010ABAFA8AFA07685D
:102860004FEA5A1ACCE7012CF1D9F36801339C42A4
:10287000EDD86FF0704221463046FFF73FFF002849
:10288000E5D0A74214D2013C012CE0D9F368013312
:102890009C42DCD8621C21463046FFF72FFF0028FF
:1028A000D5D0A74204F1FF3402D0012CEED1CEE7FF
:1028B000D9F8001059B10129C9D9F36801339942F7
:1028C000C5D83A463046FFF719FF0028BFD0C9F8EF
:1028D0000070BAF1000F01D0013737600120B7E76F
:1028E00038B590F90530002B03DBBDE83840FFF721
:1028F00097BE044601210069FFF7D2FEF8B1257D9D
:10290000104B13EB45151AD0A3790F4A012B9CBF2E
:10291000A369EB61E36912686B831B0CAB8232B174
:1029200005F1160105F1180090472B8B6B82637936
:1029300003F07F036371BDE83840FFF771BE0020EC
:1029400038BD00BFB8CBFF1FBCCDFF1F10B500F1D5
:10295000080204460121006AFFF74AFF50B1E3690B
:102960003BB96379A268E26163F07F036371012080
:1029700010BD012010BD00BFF8B5837913B1826985
:102980008A4201D20020F8BD022B0F4605461AD01C
:1029900007B32B6AE9681C7C4A1E04F109037C1EFC
:1029A000DA40DC40A24211D9EB69AB6005F10806C0
:1029B00006E0A968286AFFF7E3FE013C0028E1D0A1
:1029C0003246002CF5D1EF600120F8BD0029EBD094
:1029D000A41AEBE7AF60EF600120F8BD2DE9F04FDE
:1029E0008B46817985B001290746019205D00123E4
:1029F0003B71002005B0BDE8F08F42799107F6D514
:102A0000530708D5FC68B9698C4200F0B480FFF721
:102A1000B3FF0028EBD0019BFC68002B4AD0DFF805
:102A2000A491DFF8A4A1DDF80480386A0679013E9C
:102A300006EA542616F0FF06C4F3080443D1002C1E
:102A400041D1B968002973D1FA69002A00F0838066
:102A5000BA60C4F50075ADB245453AD9057C416907
:102A6000023AAA400E4416441FFA88F51CB9F868C9
:102A7000BA6990424FD230460121FFF711FE00287B
:102A8000B5D04C4404EB050E74450DD00BF1FF316D
:102A9000621E0EF1FF3611F8010F02F8010F964287
:102AA000F9D1C4EB0E04A344FC68B8EB05082C4430
:102AB000FC60BAD1BB69A34262D27A79BC6142F0B0
:102AC00080027A7165E0C4F50075ADB24545BA681B
:102AD000C4D8017C4069023A8A400644B5F5007FBB
:102AE0001644C3D1DAF80020964204BF4FF0FF32FB
:102AF000CAF800202F4A10680278FE2A314633D0E7
:102B00005A4600F079FA00283FF471AF0BF5007BCC
:102B10004FF40075C8E7FFF783FD00283FF467AF67
:102B20002549CAF800600A7842F001020A70A8E755
:102B300003AAFFF725FE00283FF45CAF386A1F4B5D
:102B400090F82050039A4FF6F871102D18BF1946CF
:102B50008A42FFF47DAF3846FFF7F8FE00283FF4C5
:102B600046AF386ABA6874E7584600F083FBB0FA9B
:102B700080F04009C7E7019B002B7FF450AF08E0CD
:102B80000F4B7A791B6823B1019B13B142F080028D
:102B90007A71120709D5BB79002B3FF428AF38466C
:102BA000FFF79EFE00283FF422AF019805B0BDE874
:102BB000F08F00BFB4CBFF1FB8CDFF1FF8FFFF0F92
:102BC000BCCDFF1FB8CBFF1F98AFFF1F00B583B070
:102BD00002AB012203F8011D1946FFF7FFFE03B007
:102BE0005DF804FB10B50121007800F08BFF114A5D
:102BF0001378C3B11049CB7A00241846147093B1EE
:102C0000DA0703D50D4AC869106018469C0703D53A
:102C10000B4B0A6AC87A1A60420705D4030702D52B
:102C2000084B8A6A1A6010BD074B4A6AC87A1A6054
:102C3000F4E700BFC4CDFF1F58AFFF1F00E100E065
:102C400004E100E00CE100E008E100E0234B1A7829
:102C50001AB10078002100F055BF70B4204A214914
:102C6000D47A096801251D70002C26D072B6D47A5A
:102C7000E607234606D51C4DD3682E683340D36142
:102C80002B602346A50706D5184D14692E68D37A04
:102C9000344014622C605C0706D5154D54692E68CB
:102CA000D37A344054622C601B0705D5114C9369CC
:102CB00025682B409362236062B61368DA688A4203
:102CC00007D00D4C1C600D4AD96041F080441C6156
:102CD0001A600078002170BC00F014BFC4CDFF1F43
:102CE00058AFFF1FC0CDFF1F80E100E084E100E08E
:102CF00088E100E08CE100E001403F0000003F80FF
:102D0000F0B41248124A036882B016460093009F3E
:102D10004FF00045FF24136843F480631360D562CD
:102D20005463D36A002BFCDAB36BDBB2FF2B09D000
:102D300003680193019BDB1B8B42ECD3002002B0A4
:102D4000F0BC7047012002B0F0BC7047ECCDFF1F13
:102D500000C00240F8B50D464FF496711646044681
:102D6000FFF7CEFF284B1A684FF0004042F4806214
:102D700045F040011A60D8621A465963D36A002BA5
:102D8000FCDA214918204FF000470A6826FA00F3C0
:102D900042F48062DBB20A60CF624B63CB6A002BE5
:102DA000FCDA083810F1080FEFD155B3082D0CBF2D
:102DB0008721FF21144B1A684FF0004042F48062D3
:102DC0001A60D8621A465963D36A002BFCDA0E4A9D
:102DD000002716464FF00045FF21136843F4806337
:102DE0001360D5625163D36A002BFCDAB36BD8B29F
:102DF0001B06607000D4F8BD0137B7F5807FECD1B9
:102E0000F8BD9521D6E700BF00C00240F0B41549D7
:102E1000154A0B6882B016460093009F4FF000459C
:102E2000FF24136843F480631360D5625463D36A4C
:102E3000002BFCDAB36BDBB2FF2B43700AD10B68BB
:102E40000193019BDB1BB3F5967FEAD9002002B00A
:102E5000F0BC7047A3F1FE00B0FA80F0400902B068
:102E6000F0BC7047ECCDFF1F00C00240F8B583787E
:102E7000032B0E46044618BF4E021546FFF7E6FE2A
:102E8000324611212046FFF765FF18B92046FFF7AB
:102E9000BDFF20B92046FFF7A5FE0020F8BD204B5E
:102EA0002049214A1A608E4659631A4659631E46C4
:102EB000596305F5FD70A91C05F5FE77D36A13F07B
:102EC000F00FFBD0C6F834E0B36B01F8013C1B12E5
:102ED00001F8023C02318F42F0D105F50075A8429D
:102EE0000DD20F4A1646D36A13F0F00FFBD0B36B26
:102EF000191200F8021BA84200F8013CF3D3084B5A
:102F00000949084A196019465A63CB6A044A13F002
:102F1000F00FFAD02046936BFFF764FE0120F8BD56
:102F200000C00240FFFF009000041F80F0B4314E4B
:102F300033684FF0004743F4806333603D46F762E7
:102F4000344671633346511C02F20127E26A002ABB
:102F5000FCDA1A6811F8016C42F480621A60DD62D2
:102F60005E63E26A002AFCDA1A6811F8026B42F426
:102F700080628F421A60DD625E63E7D11D49CA6AD2
:102F80001C4B002AFBDA1A684FF0004542F48062BD
:102F9000FF241A601946DD625C63CB6A154A002B78
:102FA000FBDA13684FF0004543F48063FF2413609D
:102FB0001146D5625463CB6A0E4A002BFBDA1368C4
:102FC0004FF0004543F48063FF2413601146D5623F
:102FD0005463CB6A074A002BFBDA936BDBB203F036
:102FE0001F024370A2F10500B0FA80F04009F0BC66
:102FF000704700BF00C0024070B5044671B18378CD
:10300000032B0D4618BF4D021646FFF71FFE2A463A
:1030100018212046FFF79EFE054620B12046FFF707
:10302000E1FD002070BD3246FE212046FFF77EFF05
:103030000028F3D04FF416712046FFF761FE0028F8
:10304000ECD02A460D212046FFF784FE0028E5D16A
:103050000B4B1A684FF0004542F48062FF201A6063
:103060001946DD625863CB6A054A002BFBDA936B85
:1030700013F0FF0FD2D12046FFF7B4FD012070BD41
:1030800000C00240014B024A1A607047C0CDFF1FCA
:10309000032000382149224A0B6843F080030B606B
:1030A00011461368DB07FCD40B689B07F9D41D4B52
:1030B00030B44FF08072194D186000E0A2B1296859
:1030C000194B164C0B40013A002BF7D062B1012B83
:1030D0000AD1236813F0800F23680FD043F0011347
:1030E0002360032030BC70470C4A136843F47023FC
:1030F00043F001031360012030BC704713F48033A8
:1031000005D0236843F0011323600520F4E722680B
:1031100042F0010218462260EEE700BF30100B407B
:1031200024100B400C100B4001000E0070B50D4D2B
:103130000D480E4E00232B60FFF7ACFF63240346BF
:1031400006E04BB92B60FFF7A5FF013C034605D015
:10315000326805485207F4D4184670BD002808BFED
:10316000052070BD08100B400000DB0C24100B4044
:10317000F8B5384B1A780AB10320F8BD5B780646DB
:1031800003B94902344D354C354B36484FF6FF777D
:103190004FF481322F6021601A60FFF77BFF002817
:1031A000EBD1314B31491B681C3406F1400206F566
:1031B00010702B68284F43F0200613F4E00F2E60A8
:1031C0003ED123681E05FCD50B6842F8403C0B68D5
:1031D00042F83C3C0B6842F8383C0B6842F8343CFF
:1031E0000B6842F8303C0B6842F82C3C0B6842F804
:1031F000283C0B6842F8243C0B6842F8203C0B68E2
:1032000042F81C3C0B6842F8183C0B6842F8143C2E
:103210000B6842F8103C0B6842F80C3C0B6842F813
:10322000083C0B6842F8043C40328242C1D1002085
:1032300009490B68084A9B07FBD50D4B1360F8BD85
:1032400043F4E00343F020033B60FFF76FFF0120EE
:10325000EEE700BFC8CDFF1F30100B4008100B4039
:1032600004100B4010003A1110100B4020100B40BE
:1032700022000001F8B52B4B1A780AB10320F8BDE3
:103280005B78044603B94902274D284E284B29484C
:103290004FF6FF774FF481322F6031601A60FFF7ED
:1032A000F9FE0028EBD1244B24491B682E4604F577
:1032B00000772B681C4AD806FBD5336813F4E00F5F
:1032C0001AD104F1400254F8043B0B60A242FAD137
:1032D0002B68DFF854E043F010032B602B6813F4E5
:1032E000E00013D19742E4D10F490B680E4A9B07C7
:1032F000FBD5134B1360F8BD136843F4E00343F0B0
:1033000010031360FFF712FF0120EDE7DEF8003035
:1033100043F4E00343F01003CEF80030FFF706FF5C
:103320000120E1E7C8CDFF1F30100B4008100B4013
:1033300004100B4000003A1810100B4020100B40F6
:10334000120000012DE9F04F00F5807EB1E8A00ADF
:10335000B2E84015C5EA0643C6EA2544C7EA08456F
:10336000C8EA2746C9EA0A47CAEA2948CBEA0C490B
:10337000CCEA2B4AA0E8F8078645E7D1BDE8F04F34
:1033800070474FF000022DE9F00F00F5807C00BF80
:10339000B1E8A00AC5EA0203C2EA2544C7EA020569
:1033A000C2EA2746C9EA0207C2EA2948CBEA02096B
:1033B000C2EA2B4AA0E8F8078445E9D1BDE8F00F3E
:1033C00070474FF000022DE9F00F00F5807C00BF40
:1033D000B1E8A00AC2EA0543C2EA0504C2EA074509
:1033E000C2EA0706C2EA0947C2EA0908C2EA0B496B
:1033F000C2EA0B0AA0E8F8078445E9D1BDE8F00F5E
:1034000070472DE9F00F089C00F5007B51F8045B34
:1034100053F8046BC5EA0647C6EA254952F8045B2F
:1034200054F8046BC5EA0648C6EA254AA0E88007B6
:103430008345EBD1BDE8F00F704700BF844641EAF9
:10344000000313F003036DD1403A41D351F8043B1C
:1034500040F8043B51F8043B40F8043B51F8043B6E
:1034600040F8043B51F8043B40F8043B51F8043B5E
:1034700040F8043B51F8043B40F8043B51F8043B4E
:1034800040F8043B51F8043B40F8043B51F8043B3E
:1034900040F8043B51F8043B40F8043B51F8043B2E
:1034A00040F8043B51F8043B40F8043B51F8043B1E
:1034B00040F8043B51F8043B40F8043B51F8043B0E
:1034C00040F8043B51F8043B40F8043B403ABDD27D
:1034D000303211D351F8043B40F8043B51F8043B1F
:1034E00040F8043B51F8043B40F8043B51F8043BDE
:1034F00040F8043B103AEDD20C3205D351F8043BAE
:1035000040F8043B043AF9D2043208D0D2071CBF79
:1035100011F8013B00F8013B01D30B8803806046A2
:10352000704700BF082A13D38B078DD010F0030318
:103530008AD0C3F10403D21ADB071CBF11F8013B88
:1035400000F8013B80D331F8023B20F8023B7BE7D7
:10355000043AD9D3013A11F8013B00F8013BF9D202
:103560000B7803704B7843708B788370604670479C
:1035700038B50F4D286878B143880288C1180133E7
:1035800093420C7A02D24380204638BD00F0EEFB15
:10359000002320462B6038BD064B1B782BB103203F
:1035A00000F00AFC28600028E6D14FF0FF3038BD5B
:1035B000E4CDFF1FD0CEFF1F10B5094C206818B115
:1035C00043881844007A10BD064B1B782BB10320AA
:1035D00000F0F2FB20600028F2D14FF0FF3010BD68
:1035E000E4CDFF1FD0CEFF1F044B054A1B68908817
:1035F0001BB11A885B88D31A18447047E4CDFF1FAB
:10360000C8D2FF1F0B4B1B789BB110B50A4C20682A
:1036100048B100F0ABFB00230320236000F0CCFB9B
:1036200030B100F0A3FB032000F0C6FB0028F8D166
:1036300010BD7047D0CEFF1FE4CDFF1F2DE9F04F26
:10364000DFF8F89083B0012289F80020019169B376
:10365000DFF8EC80354F019E8346D8F80000B0B308
:10366000334D4488C4F14001B14228BF314604EBD8
:10367000010E00221FFA8EFE2A70761AA0F802E0D0
:1036800000F1080251B1013C224459441BF8014B9E
:1036900002F8014F8B45F9D1B0F802E0BEF13F0FBF
:1036A0000BD8244A05211170002ED6D10198002391
:1036B00089F8003003B0BDE8F08F40220280014657
:1036C000042000F011FC0022C8F80020E9E73A7855
:1036D00022B3194C164D4FF0010A07E0013C16D0F9
:1036E0002A78A2B901F098FB3A78BAB1042000F028
:1036F00081FB0728F2D889F800A000F017FBC8F872
:1037000000000028ADD10D4B013C1870E8D1012319
:103710004FF0FF302B7003B0BDE8F08F00234FF067
:10372000FF3089F8003003B0BDE8F08FD0CEFF1F26
:10373000E0CDFF1FD8CDFF1F21480100D9CDFF1FCD
:10374000DCCDFF1F00B583B002AB012103F8010DF2
:103750001846FFF773FF03B05DF804FB38B50E4D54
:103760000E4C28680123237028B140880023237061
:10377000C0F1400038BD0A4B1B7813B900202070FF
:1037800038BD042000F036FB0728F7D800F0CEFA49
:1037900028600028E9D1F1E7DCCDFF1FD9CDFF1F5C
:1037A000D0CEFF1FF8B5114B1B788BB1104E114DC9
:1037B000346801272F7064B10F4A6388002717709F
:1037C00021462380042000F08FFB376000232B70FC
:1037D000F8BD00F0ABFA084B28B1014604201C707C
:1037E00000F082FBF2E71F70F0E700BFD0CEFF1FB2
:1037F000DCCDFF1FD9CDFF1FD8CDFF1F38B50E4B35
:103800001B7873B90D4C216861B103F0FF054B883B
:103810000B80042000F068FB256038BD084B0122B6
:103820001A7038BD00F082FA0028F7D00146BDE8D2
:103830003840042000F058BBD9CDFF1FDCCDFF1F5E
:10384000D8CDFF1F30B42948294A2A4B2A4D60247D
:10385000E121047011701B78284C082B30D00A2B02
:103860002748284937D00C2B0CBF35225D22122364
:103870002A60236002600B60234B24491B78244A92
:10388000BBB101230B601360224B23491B78234AF1
:10389000012B26D9042B0FD9082B1ED9102B94BF2E
:1038A000862387230B6013601D4B01221A7030BCE6
:1038B00070470B601360E7E784230B601360F3E746
:1038C00000F58E200F490830212213232A6023603F
:1038D00002600B60D0E73922F7E785230B601360A5
:1038E000E2E780230B601360DEE700BF0040074083
:1038F000014007409CAFFF1F08B003400CB00340DD
:1039000008B00B400CB00B40EACDFF1F20B00340C5
:1039100020B00B409DAFFF1F24B0034024B00B40EC
:10392000E9CDFF1F08B5104C08E0236859050DD4F8
:1039300023681A050FD42368DB0411D423685803C5
:10394000F3D500F013FB23685905F1D501F0A4FE6F
:1039500023681A05EFD501F08DFD2368DB04EDD552
:1039600002F01AF8EAE700BF3480044008B5FFF718
:10397000D9FF00BF014B10221A807047002005407C
:10398000704700BF094908B50B6830B16A46184452
:10399000A2F50052904202D20860184608BD02F01B
:1039A00077F80C2303604FF0FF3008BDA0AFFF1F76
:1039B000FEE700BF084A1378802B01D00020704733
:1039C0000649074B07480860002119701378802BBF
:1039D000FCD00120704700BF03E007404480044052
:1039E00001E0074000002822094A1378012B01D08A
:1039F0000020704703F1804303F5FC236021197018
:103A00001378802BFCD1034B034A1A6001207047C6
:103A100003E00740448004400000060210B4114B4C
:103A200053F8302092F8804234B1012379B182F802
:103A300080305DF8044B704703EBC0035B681A6885
:103A400051B922F002021A605DF8044B704782F807
:103A500000315DF8044B704742F003021A605DF8D4
:103A6000044B70475C6800001C4A02EBC00301294C
:103A70005B6811D004291BD052F83000002280F876
:103A8000802229B1022920D0032922D01A60704750
:103A90004FF480721A60704752F830004FF4A272EF
:103AA00080F880121A601A6822F020021A607047AB
:103AB00052F830104FF4A272012081F880021A608F
:103AC0001A6842F020021A60704740F203121A602E
:103AD00070474FF481721A60704700BF5C68000045
:103AE00030B4054B054D064C002210211A602A60A7
:103AF0002060196030BC704714D0034004D00340EC
:103B000000D003403F2801D8FFF788BF704700BFAF
:103B10003F2801D8FFF7A8BF704700BF2DE9F84341
:103B2000054672B6224F234B234A1B683C68126835
:103B300062B6520102D5322B88BF0134B5B3C3F54A
:103B40002F3303F21F331D4EDFF86890DFF86880D3
:103B50009B084FF47A72A6FB031302FB04F404EBF8
:103B6000930472B6D9F800103A68D8F800E062B64B
:103B7000C1F52F3303F21F339B08A6FB03031EF08E
:103B8000806FC4EB93034FF47A7002D0322988BF60
:103B9000013200FB0233B3F57A7F04D3013D05D037
:103BA00004F57A74DDE701F037F9DAE7BDE8F88368
:103BB000ECCDFF1F18E000E004ED00E0176CC1162B
:103BC000F8B54E4B4E48DFF85CC14E4C4E49DFF81D
:103BD00058E14E4E4E4D4F4F4FF000621A604FF07D
:103BE00080521A604FF000521A604FF080421A6003
:103BF0004FF000421A600022026028234EF6FF7048
:103C0000CCF80000CEF8003023600EF5012E0B60DA
:103C100033602B6006F500263B6005F50025A362A6
:103C200007F500278B6204F5012401F5012106F652
:103C3000E87605F6E87507F57F6710310EF1100E8E
:103C4000203433602B60CEF800303B600B60236083
:103C5000314CBB618B6109212160A7F5002704F578
:103C60008054203F08343A602060BB60E36047F82E
:103C7000041C04F5FD2407F5FE27043704F2FC7448
:103C800022603860A360FB6044F8041C083404F62A
:103C9000FC74C7F8FC2F2060A4F5E124A4F2DC74C6
:103CA00033602B60C7F8F81F21681C4841F400718D
:103CB000216001681A4C0EF57F4E0EF1E80E07F5F3
:103CC000883706F5803605F5803541F000710160D2
:103CD000CEF8002047F6FF710822396033602B6070
:103CE0002260FFF7AFFD1920FFF718FF00F0A6FED6
:103CF00040F21310BDE8F840FFF710BF04E100E008
:103D000004800340148003401C800340248003404F
:103D10002C80034034800340008003400480044032
:103D200000900C40088003400C80034072B60D48A0
:103D30000268B2FA82F30B2B10DC4FF00041D9403D
:103D400022EA0102026062B6074803EBC303DB000C
:103D5000C2180021C15010465160704762B6002061
:103D6000704700BFA4AFFF1FD0A9FF1F0D4B0E4A25
:103D7000C31AA2FB03231B090B2B0CD80B4A127886
:103D800052B972B60A484FF00041026821FA03F3B3
:103D90001A43026062B67047064A1278002AF0D0D1
:103DA00000F03EB8D0A9FF1F398EE338C5CEFF1F03
:103DB000A4AFFF1FD0CEFF1F431E032B14D872B633
:103DC0000A4951F8230068B170B4094C058834F8E9
:103DD0001320466841F82360521B24F8132062B672
:103DE00070BC704762B670470020704748CEFF1F16
:103DF000C8D2FF1F013803280BD872B6074B53F8FF
:103E0000203043B100205B680130002BFBD162B64B
:103E10007047002070471846F9E700BF9CCEFF1F8F
:103E200030B472B62B4A13781D0706D52A4B196A8F
:103E3000002936D0996A002941D053781C0706D54D
:103E4000254B196C00293ED0996C002939D0937804
:103E5000190705D5204B196E002936D0996E89B106
:103E6000D3781B0707D51C4BD3F880207AB3D3F83F
:103E7000882011213AB162B6184B00221A7030BC6A
:103E8000FFF774BF0D21154C154D227843F83150C2
:103E900003EBC1030830013A5860227062B630BCAF
:103EA000704704220D4C0F4D217843F8325003EB3C
:103EB000C20308304A1E5860227062B6EFE705213F
:103EC000E1E70921DFE70822ECE70C22EAE710220C
:103ED000E8E700BF886A00000000FF1FC5CEFF1F93
:103EE000C800400088004000431E032B1DD81B4A19
:103EF000400140F0100030B4104472B6184CE25C3F
:103F0000032A1BD8DFE802F00212151703220D88DE
:103F1000E25410F0080F14BFC823882343EA054376
:103F200008310360416062B630BC7047083002223D
:103F3000EDE70522EBE708300422E8E7094A52F8EA
:103F4000230038B1084A52F82300416042F8231098
:103F500062B6E9E742F82310034AF7E70000FF1FC3
:103F6000D4CEFF1F9CCEFF1FACCEFF1F2DE9F04F1C
:103F7000DFF80CB3DFF80CA387B044E0AB4F4FEA97
:103F8000930807EBC809013ED9F8042003F00803A1
:103F9000F6B2A2F1080003F0FF04002B40F002810A
:103FA00057F838301B0C99B222F8081C002B00F08F
:103FB000F0809F4B22F8064C42F8044C53F8262020
:103FC000002A00F0C5829B4D55F8263058609A4C67
:103FD00045F8260034F81630194424F81610FFF777
:103FE000A5FE002800F0AD82944A954B19F0080F09
:103FF00000F1080018BF1346C9F8040047F838302C
:1040000008238BF800309BF80040E4B261071AD512
:104010008C4B1B78A3B18C490A7802F0FF0322B1C4
:10402000013BDBB20B7003B900BE88490A7802F08D
:10403000FF032AB1013BDBB20B70002B00F057826B
:1040400004238BF8003004F0080303F0FF02002B78
:1040500000F0CC809AF80030DBB21E098ED19C08AB
:10406000DFF8C89159F8342009EBC401C2F3830288
:10407000013A49680C2A00F28880DFE802F07C7C73
:104080008686868686864786868607000868704DFF
:104090004A68704F704E286081B240F28160674B71
:1040A0006A604FF0010E0022814249F834303A60D4
:1040B000C9F81020C9F8182086F800E05B4C00F21F
:1040C000E380B1F5D06F80F04683B1F5817F00F0D9
:1040D000FC8200F28D82802900F07783822940F0F3
:1040E000FA82A98801F07F01042900F2F4825B487A
:1040F0005B4C89000844227062700278930740F19B
:10410000588484F800E04FF0020E42E3514F3A68C1
:1041100032B3544B504E5449188834780D784028A7
:10412000864645F0020828BF4FF0400E002C84F070
:1041300001043470CEEB00000CBF8824C82409EBC6
:10414000C80680B285F0010544EA0E44726018800A
:1041500049F8384072440D70002800F045813A60FB
:104160003B4B1A88B2F5A06F0FD100219A78597095
:104170003E4B1A7009E0364A108842F22102904202
:1041800000F037812D4A49F83420394A0123137051
:1041900036E72A4A2A4B19F0080F18BF134647F88A
:1041A00038302DE7FFF7E2FD324A334952F8263026
:1041B000002B00F0D18158688C5D42F8260003F195
:1041C0000802C9F80420032C05D8DFE804F02C020B
:1041D000292602228A551A8819F0080F0CBF882355
:1041E000C82343EA024347F8383009E7E00700F103
:1041F0008181210600F1F281A20706D51F4A2049DC
:1042000013780220DBB213700870E30602D51C4B52
:1042100010221A7007B0BDE8F08F04228A55DAE741
:1042200005228A55D7E703228A55D4E70000FF1FED
:1042300048CEFF1FF4CDFF1FC8D2FF1FC8004000AB
:1042400088004000D0CEFF1F59CEFF1FD8CDFF1FE2
:10425000BCCEFF1FF0CDFF1F58CEFF1FC020074070
:10426000C8CEFF1F04CEFF1FC4CEFF1F98200740FB
:10427000942007409CCEFF1FD4CEFF1F882007400C
:10428000802007409020074042F22100814200F048
:104290002A8100F2D880B1F5086F00F07682B1F57E
:1042A000106F40F01882226AB349A878087012068D
:1042B00000F13A83D9F82820B049130600F10C83A5
:1042C000D9F83020AD49150600F10183D9F838201E
:1042D000AA49140600F1F682D9F84020A749100631
:1042E00000F14A83D9F84820A449120600F13F831F
:1042F000D9F85020A149130600F13483D9F8582089
:104300009E49150600F12983D9F860209B491406BF
:1043100000F11E83D9F868209849100600F1138334
:10432000D9F870209549120600F10883D9F8782051
:104330009249130600F1FD82D9F880208F491506B5
:1043400000F13183D9F888208C49140600F12583C7
:10435000D9F890208949100600F11983D9F89820DE
:104360008649120600F10D838548864A86490190E8
:104370008648874D874C0497002305960295804612
:104380000F4616461D460394306828B14468FFF76F
:10439000EDFC2046002CF9D100233360029B3868E5
:1043A0001A46002342F8253028B14468FFF7DEFCA6
:1043B0002046002CF9D100223A60019A98F800308A
:1043C0001146002241F8042B039A0191023B4FF061
:1043D000000122F81510032B00F22B81DFE813F007
:1043E0007001250170012501BEF1400F18BF0022A8
:1043F000B5E6694A0D784878157050708D78C878A0
:104400009570D07010680D79157186284D7989796D
:104410005571917100F09B816049614E0A78307846
:1044200082F00105002842F002020D700CBF8821C5
:10443000C82149F8321009EBC20280F001000021C6
:10444000307051609EE642F22120814240F0CB81E3
:10445000544B554C5549A8781D682560CDF804E0AB
:104460000870002002908046844604464B490D782F
:1044700045F0020E09EBCE030393019B002B039B37
:104480005C600CBF8824C82444EA080385F001045A
:1044900049F83E3032700C70DFF8E0E0404BDFF856
:1044A000FC80002840F01E81BCF1400F1BD144F07D
:1044B000020C09EBCC03029CDFF8C0E05C60002A30
:1044C00040F02681020442F088029DF804304EF844
:1044D0003C20044433700D702346402803D1002053
:1044E000334A3B601080334A012313704DE6FFF7D7
:1044F00085F9A5E5214B2F4828491A614FF0020E96
:1045000080F800E02C4F0A702C49196099602C4EFD
:104510002C4D2D4C9A610D213970FF213170DFF83F
:10452000B8E029702270294D294A8EF800109F2783
:10453000012406F8047C5D600470DA6007B0BDE811
:10454000F08F244A47F8380013780133137057E589
:1045500043F826000E4D3AE58B5D032B00F2F08008
:1045600001A252F823F000BF01400000014000000A
:10457000254600001F460000D0CEFF1F0000FF1F91
:10458000ACCEFF1F48CEFF1F9CCEFF1FD4CEFF1F17
:10459000F4CDFF1FC8D2FF1FBCD2FF1FC4CEFF1F28
:1045A00058CEFF1FECCDFF1FC4D2FF1FE8CDFF1F69
:1045B00004CEFF1F94200740C02007408800400021
:1045C00088200740802007409820074008CEFF1F22
:1045D0005CCEFF1FC5CEFF1F8C200740C149C24BD8
:1045E00080220D2008701A70A2077FF50EAE05E636
:1045F00040F20232914240F0EE80A98801F07F0142
:10460000042968D86A88002A65D1B648CDF804E044
:1046100089000844017841F00201017021E701237B
:104620008B55EDE400238B55EAE44FF0010388F845
:1046300000300135042D06F1040607F1040708F1E6
:1046400001087FF4A1AEA94CA94B2278A94D049F83
:10465000059E002129701A70130700F10581627808
:10466000A549DFF8A0820A7010074FF00001C9F8D1
:104670003010C9F8381000F1E080A049A2780A7023
:104680000021C9F85010C9F858101107DFF87482DA
:1046900000F10181E2789A499A4C0A7000211207D0
:1046A000C9F87010C9F8781000F1B0803378019320
:1046B000002183F00102C9F89010C9F89810D0E6E3
:1046C0004FF0000388F80030B3E7A98801F07F01BC
:1046D000042940F28D80834A0F2313708A4A0123F4
:1046E000137052E540287FF6E2AE44F002040EEB70
:1046F000C401029E4E60BAB19DF80410834A19703D
:104700003346403888F8005040334EF83420E7E60E
:104710009DF8043033700204029B0D7042F0C80211
:1047200003444EF83C20D8E69DF804101970029B13
:10473000774A88F80050403840334EF83420CFE6AE
:1047400019F0080F0CBF022303238B5558E4714A5C
:104750000F21117060E6704A5468002CBBD0688845
:10476000B5F804E003E00C325468002CB3D0138891
:104770008342F8D153887345F5D1000A03280CBF52
:1047800094F800E0B2F808E003E0644A644C127860
:104790002270E888704580F03F8162490D7840289A
:1047A000844645F0020E28BF4FF0400C04EB0C038A
:1047B00009EBCE02029301235460CCEB00004FEAD8
:1047C0000C4800220193C8245EE6554C4FF0020EBF
:1047D00022706270DDE7B1F5A06F7FF47CAF01233A
:1047E000002201933DE642F221329142F7D072E776
:1047F0006A88002A7FF46FAF3A48CDF804E0890058
:104800000844017821F0020101702AE6FFF78EFAD0
:10481000002800F0EF8008303D4AC4F88400C4F856
:104820008020FFF783FA002800F0DE800830374A46
:10483000C9F88C00C9F8882038E7FFF777FA002814
:1048400000F0C0800830324AC8F84400C8F8402060
:10485000FFF76CFA002800F0AF8008302B4AC9F847
:104860004C00C9F8482008E7FFF760FA002800F07C
:10487000CD800830264AC9F82400C9F82020FFF767
:1048800055FA002800F0BC800830204AC9F82C00F6
:10489000C9F82820E3E6FFF749FA002800F09E80D7
:1048A00008301B4AC8F86400C8F86020FFF73EFAD9
:1048B000002800F08D800830144AC9F86C00C9F84F
:1048C0006820E7E6C86B0838FFF750FA04E5486B44
:1048D0000838FFF74BFAF9E4C86A0838FFF746FAD8
:1048E000EEE400BFC020074080200740886A000037
:1048F000C4200740C5CEFF1FC8200740CC2007407A
:10490000D02007400000FF1F94200740C80040004F
:104910008800400059CEFF1F8C6A0000D0CEFF1FD8
:10492000C8CEFF1FC4CEFF1F606A0838FFF71EFA0B
:10493000C0E4C86F0838FFF719FAFDE4486F08387B
:10494000FFF714FAF2E4C86E0838FFF70FFAE7E44D
:10495000486E0838FFF70AFADCE4C86D0838FFF73C
:1049600005FAD1E4486D0838FFF700FAC6E4C86CD0
:104970000838FFF7FBF9BBE4486C0838FFF7F6F995
:10498000B0E4D1F89C000838FFF7F0F9ECE4D1F876
:1049900094000838FFF7EAF9E0E4D1F88C00083811
:1049A000FFF7E4F9D4E4D1F884000838FFF7DEF922
:1049B000C8E44FF0020EECE62A78C9F8480001324C
:1049C0002A705AE62A78C8F8400001322A703FE778
:1049D0002A78C9F8680001322A705BE62A78C8F89C
:1049E000600001322A7061E72A78C9F88800013234
:1049F0002A705BE62A78C4F8800001322A7010E73A
:104A00002A78C9F8280001322A7028E62A78C9F8DD
:104A1000200001322A7032E7BEF1400FF44628BF71
:104A20004FF0400C04EB0C0302930123CCEB0E007F
:104A30004FEA0C480022019318E500BF2DE9F04130
:104A400000F032FF314C324B3248DFF8E480324E16
:104A5000DFF8E0C0314F324DDFF8DCE000221A60B1
:104A60005A609A60DA601A615A619A61DA611A6270
:104A70005A629A62DA621A635A639A63DA631A6450
:104A80005A649A64DA641A655A659A65DA651A6630
:104A90005A669A66DA661A675A679A67DA67C3F8D7
:104AA00080202168C3F8842041F4802121600168BE
:104AB00041F040710160032188F80010A020C3F389
:104AC00007218CF8000004F528343170C3F3074047
:104AD000144938701B0E2B70CC34FF238EF8003035
:104AE000114D0CF8B83C11480B70012306F8083C36
:104AF000227070264FF40014102207F82C3C2E7000
:104B0000046081F8F820BDE8F08100BF34800440E3
:104B10000000FF1F00D800409C200740B020074045
:104B2000B42007401020074035E400E004E100E035
:104B3000442107404021074080200740F0B572B66D
:104B400099B902688AB103790F2B0ED8284C2188B5
:104B500041FA03F5ED070AD503F1007303F59063FD
:104B6000B2EB431F03D162B6F0BD214C2188002374
:104B700041FA03F212F0010207D00133102BF7D1F2
:104B800062B6002203710260F0BD01259D402943F9
:104B9000218062B6174E184D184FDFF868E0D9B281
:104BA0000171346844F0020434602C6844F002045B
:104BB0002C60A6F5802640F28244A5F5802503F1FD
:104BC00000733C6003F59063223E243D0C4C8EF84C
:104BD00000105B0131702970217003601A605A6007
:104BE0009A60DA601A615A619A61DA61F0BD00BFB9
:104BF000D8CEFF1F408004403C800440008000402D
:104C00001F8000401A80004003790F2B12D80A4AF7
:104C100010B4137072B6094904790A880123A340BD
:104C200022EA03030B8062B6102200235DF8044BD6
:104C300002710360704700BF1A800040D8CEFF1F8A
:104C400010B4EFF3108272B6437F33B9017F0129AC
:104C500008D0032910D00123437702B962B65DF86A
:104C6000044B7047114C2168A1B1114943610B6895
:104C7000836108605861EEE70E4C216881B10E49EE
:104C800043610B688361086058610C4B4FF08051A1
:104C90001960E0E7064B4161816120601860DAE746
:104CA000054B4161816120601860EEE7ECCEFF1F8B
:104CB000E8CEFF1FDCCEFF1FE0CEFF1F04ED00E0BB
:104CC00070B5EFF3108272B60C4C206880B10C4EB8
:104CD00000254369236073B19D6102B962B64577CF
:104CE00083689847EFF3108272B620680028F0D1ED
:104CF00002B962B670BD3360EFE700BFDCCEFF1FC4
:104D0000E0CEFF1FFFF7DCBF184A30B41468002C58
:104D100027D0036821688B420ED2CB1A0021846011
:104D2000C1602360E06010600223037530BC7047EF
:104D300011688B42144608D3A2685B1A0360002AEC
:104D4000F6D18260C460A060EEE7D268C260846081
:104D5000E060C568CB1A0222A8602360027530BCEF
:104D600070478460C4601060DEE700BFE4CEFF1FC0
:104D7000F8B5224E34682CB32368002B3AD1204F6B
:104D80001D4604E03468ECB12368002B32D1A368DF
:104D900003B1DD6020693360036825751B68BB4281
:104DA00021D1037F4560022BC46020D0FFF748FF6C
:104DB0006368002BE6D023602046FFF7A5FF346828
:104DC000002CE1D1EFF3108372B60E4A0021106877
:104DD000116003B962B628B18468FFF795FF2046D9
:104DE0000028F9D1F8BD224600219847E0E7836802
:104DF0009847DDE7013B2360E4E700BFE4CEFF1FF7
:104E0000A9240000F4CEFF1F024A13680133136087
:104E1000FFF7AEBFECCDFF1F38B52C4C237803B1A4
:104E200038BD01232370FEF7DFFB002842D100F0DC
:104E300023FC00283BD100F00DFB002834D100F00A
:104E40009BFD70BB00F09CFB40BB00F087FA10BBE1
:104E500000F0A8FCE0B900232370EFF30583002BDA
:104E6000DED1EFF3108172B6194B186828B3194CD4
:104E7000227812BB45691D60012323700DB3AA611E
:104E800001B962B600254577836898472570C7E762
:104E900000F062FADFE700F021F8D9E700F05CF8F3
:104EA000D3E700F0E7FDCDE700F054F8C7E700F0E6
:104EB000DFFDC0E700F028F8B9E70029B0D162B6FD
:104EC00038BD054B1D600029DCD1DAE7F8CEFF1FA5
:104ED000ECCEFF1FF0CEFF1FE8CEFF1F704700BFD4
:104EE000FEF790BBFEF768BBFEF742BBFEF77CBB4C
:104EF000FEF758BCFEF732BC08461146FEF79EBBD3
:104F00000846FEF71FBC00BF704700BFF8B572B17E
:104F100006460F4614460025336817F8011B1B6828
:104F200030469847013C0544F6D12846F8BD154661
:104F3000FBE700BF00B5064A036812885B6883B0D0
:104F400001A9ADF804200222984703B05DF804FBE4
:104F5000846A0000704700BF704700BF08B5FBF7C8
:104F6000B5FAFBF737FBFFF757FFFAE7F0B5164D39
:104F70002A680AB31549164BDFF85CE082FB01672B
:104F800081FB0214D617D1191444C6EB2141C6EB9C
:104F9000244403FB04F40EFB112244F2A71303FB89
:104FA0000243002B02DA03F10043013BB3FBF0F2B2
:104FB0002B6000FB1230F0BD064B2B60B3FBF0F210
:104FC00000FB1230F0BD00BFFCCEFF1F5F0B4E8315
:104FD000ECF4FFFF42CE0C1F1DF3010008B1FFF7F8
:104FE000C5BF7047B1F5607FF0B428BF4FF4607162
:104FF00072B6134A134C144B10600022228003F146
:10500000700443F8042FA342FBD1B1B10F4E00232B
:1050100001275D0903F01F0456F8252007FA04F460
:10502000013322438B4246F82520F2D100234380EE
:1050300001338B4200F58270F9D162B6F0BC704743
:1050400008CFFF1F82CFFF1F0CCFFF1F10CFFF1F06
:10505000F0B472B6234F244E3C8806F1700306EB81
:105060008400984212D256F8241099B9021D06F114
:105070007305631CAD1A03EB950503E052F8041B9E
:1050800041B90133AB421C461046F7D162B600204D
:10509000F0BC7047B1FA81F34FF00042DA4021EAE8
:1050A0000201016001B9013410493C800A880132D3
:1050B00094B20C8062B6801B8010C3EB401000EBF2
:1050C000801083000A480B49006803F5FB531C332A
:1050D0000125C5540D88AA42184488BF0C80F0BC35
:1050E000704700BF82CFFF1F10CFFF1F84CFFF1F6D
:1050F00008CFFF1F04CFFF1F428872B60378012B31
:1051000003D9013B037062B67047531170B40C4C65
:105110000C4D54F823102E88D2434FF0004002F07B
:105120001F0220FA02F21143074A44F82310B34247
:1051300038BF2B801388013B138062B670BC704768
:1051400010CFFF1F82CFFF1F84CFFF1FC368B3B1F3
:1051500030B401E0DB688BB1187A9042FAD158681C
:105160005C7A006950F82450002DF3D140F82410E7
:10517000087801300870DB68002BEDD130BC704737
:10518000437A8B4206D90369002253F8210043F881
:10519000212070470020704738B5437A8B421AD9D6
:1051A000036953F82140002243F821209CB1237861
:1051B000012B0ED9FFF74CFF054628B14FF4807242
:1051C000211D0430FEF73AF92378013B237028466D
:1051D00038BD204638BD002038BD00BF037C23BB4E
:1051E0004368427A5B7A9A421FD830B472B6046838
:1051F000E3682BB3DA6832B119688C4216D01346D3
:10520000DA68002AF8D1D8600023C360A37A01339A
:10521000A37202684168012313728A7A1A448A725F
:1052200042681372037462B630BC70475D684168AF
:105230008D42E4D1198903899942F4D01346DFE7FE
:10524000E060E1E7037C4BB34368427A5B7A9A42C1
:1052500024D872B60268D36803B3984202D11EE024
:10526000984202D0DB68002BFAD14368427A1B696E
:10527000002143F822100268937A013B937203687D
:105280009A7A02B91A724268937A013B9372436820
:105290009A7A02B91A720023037462B67047C3681F
:1052A000D360E2E7084B1A785AB90848084910B4A5
:1052B000D0240470012210460A601A705DF8044B75
:1052C00070470020704700BF0CCFFF1F40E400E094
:1052D00008E100E01A491B4A1B48F8B50B681B4D52
:1052E000046843F080730B60136843F0010313609C
:1052F0002E6814B915E064699CB1237A002BFAD0AA
:1053000023682F681B68204698472B68E188DB1BC1
:105310001B099AB28B42A28088BFE2806469002C8C
:10532000EBD10A4B0A4A1B6810880A4C9B1B1B09CD
:1053300099B28342218001D91180F8BDF8BD00BF28
:10534000FCED00E0001000E000CFFF1F041000E0C3
:1053500080CFFF1F86CFFF1F704700BF054A064B57
:1053600010781B78C0B2DBB2984238BF4030C01A08
:10537000704700BF8CCFFF1F8DCFFF1F30B42B4B6A
:105380001A7994061FD52A48DA7903782949013316
:105390003F2B0978C8BF00238B42D2B203D0264CE2
:1053A000D9B2E2540170254A116861B1244A1278D9
:1053B000D2B2934236BFC2F140029B1A9B18272BF0
:1053C000C4BF01230B70194AD378DBB2180611D47D
:1053D0005A060DD5154B1B795B0609D5194B1A4991
:1053E0001B6800220A7003B11A70104B2C22DA706D
:1053F00030BC704711790906EAD5144910480C7879
:105400000178C9B28C420DD04A1C272A84BF0021E2
:105410000A460F4D054C98BFD1B2AA5CD2B2E271D8
:105420000170D5E76C21D170D2E700BF00A00E401B
:105430008CCFFF1F8DCFFF1FB8CFFF1F88CFFF1F5F
:10544000F9CFFF1FFCCFFF1FF8CFFF1F00D0FF1FBA
:1054500090CFFF1F054A064B10781B78C0B2DBB215
:10546000984238BF4030C01A704700BF74D0FF1F49
:1054700009D0FF1FF0B4384B1A7912F0300F2CD03E
:1054800072B6997D01F0FF0200293DD062B6334F1C
:10549000334938780D78334E1C46C0B2EDB2431C08
:1054A000402BE17928BF0023AB4202F1FF32C9B2A1
:1054B0001CBFF154184612F0FF02F0D12A4B1B68B2
:1054C000C2B23A704BB1A84236BFC5F14005401B8D
:1054D00040192728C4BF01221A701F49CA78D2B2C6
:1054E000150616D452060DD51B4B1B795B0609D544
:1054F0001E4B1F491B6800220A7003B11A70164B1D
:105500003C22DA70F0BC70474022D9795A7462B6F6
:10551000E3E70B791C06E5D5164B174E1C7833785C
:10552000E4B2DBB29C420ED0144D01E0A3420AD09B
:105530000133282B28BF00230879E85CC0B2C8716A
:10554000087D0728F2D9DBB2034933700B791806BE
:1055500044BF7C23CB70C5E700B0064074D0FF1F6A
:1055600009D0FF1F34D0FF1F04D0FF1F78D0FF1FCA
:1055700008D0FF1F7CD0FF1F75D0FF1F0CD0FF1F6E
:10558000054A064B10781B78C0B2DBB2984238BF90
:105590004030C01A704700BF84D0FF1F85D0FF1F66
:1055A00030B42B4B1A7994061FD52A48DA79037840
:1055B000294901333F2B0978C8BF00238B42D2B25F
:1055C00003D0264CD9B2E2540170254A116861B16A
:1055D000244A1278D2B2934236BFC2F140029B1ADB
:1055E0009B18272BC4BF01230B70194AD378DBB259
:1055F000180611D45A060DD5154B1B795B0609D533
:10560000194B1A491B6800220A7003B11A70104B1B
:105610002C22DA7030BC704711790906EAD514499A
:1056200010480C780178C9B28C420DD04A1C272A48
:1056300084BF00210A460F4D054C98BFD1B2AA5C29
:10564000D2B2E2710170D5E76C21D170D2E700BF10
:1056500000D0064084D0FF1F85D0FF1FB0D0FF1FB1
:1056600080D0FF1FF1D0FF1FF4D0FF1FF0D0FF1F2D
:10567000F8D0FF1F88D0FF1F054A064B10781B7813
:10568000C0B2DBB2984238BF4030C01A704700BF8A
:1056900000D1FF1F01D1FF1FF0B4384B1A7912F06F
:1056A000300F2CD072B6997D01F0FF0200293DD059
:1056B00062B6334F334938780D78334E1C46C0B24A
:1056C000EDB2431C402BE17928BF0023AB4202F12D
:1056D000FF32C9B21CBFF154184612F0FF02F0D1DC
:1056E0002A4B1B68C2B23A704BB1A84236BFC5F113
:1056F0004005401B40192728C4BF01221A701F49CA
:10570000CA78D2B2150616D452060DD51B4B1B799A
:105710005B0609D51E4B1F491B6800220A7003B1A6
:105720001A70164B3C22DA70F0BC70474022D979CF
:105730005A7462B6E3E70B791C06E5D5164B174E93
:105740001C783378E4B2DBB29C420ED0144D01E0F9
:10575000A3420AD00133402B28BF00230879E85C1C
:10576000C0B2C871087D0728F2D9DBB20349337093
:105770000B79180644BF7C23CB70C5E700A0064018
:1057800000D1FF1F01D1FF1F44D1FF1FFCD0FF1F1D
:1057900088D1FF1F84D1FF1F8CD1FF1F85D1FF1F30
:1057A00004D1FF1F054A064B10781B78C0B2DBB24C
:1057B000984238BF4030C01A704700BF94D1FF1FD5
:1057C00095D1FF1F30B42C4B5A6894021FD52B483B
:1057D000DA6803782A4901333F2B0978C8BF0023D0
:1057E0008B4204D0274CD2B2D9B2E2540170264A7F
:1057F000116861B1254A1278D2B2934236BFC2F124
:1058000040029B1A9B18272BC4BF01230B701A4A16
:105810009368180202D55268110211D45A020DD5AC
:10582000154B5B685B0209D5194B1A491B680022AE
:105830000A7003B11A70184B00221A6030BC70470E
:10584000164A124910780A78D2B290420DD001322D
:10585000272A84BF00200246114D074C98BFD0B2C2
:10586000AA5CD2B2E2600870D8E70E480A4A002467
:10587000012104601160D1E700400C4094D1FF1F6A
:1058800095D1FF1FC0D1FF1F90D1FF1F01D2FF1F75
:1058900004D2FF1F00D2FF1F5801884308D2FF1F08
:1058A00098D1FF1F5C01884310B584B072B6FEF733
:1058B00081F8184A184B19491160702280211A701A
:1058C0001A46197013781B06FCD5154B1C68FEF799
:1058D0008BF862B6134B9C429CBF04EB84046400BB
:1058E0002046114C01A90A2200F020F801A9204607
:1058F000002311F8012B01333AB10A2B20F8022FB3
:10590000F7D11623237004B010BD5B00DBB2237007
:1059100004B010BD04000240000002400000074136
:105920000C0002407F96980044B0FF1FF0B44D1E5B
:105930002E46002400E00134B0FBF2F302FB13001A
:10594000092800F130078ABF3730F8B2C0B206F834
:10595000010F1846002BEED10A1953704CB1107884
:1059600015F8016F28700133E01A834202F80169CB
:10597000F5DB0846F0BC7047054A064B10781B78EB
:10598000C0B2DBB2984238BF4030C01A704700BF87
:1059900010D2FF1F11D2FF1F30B42B4B1A7994067F
:1059A0001FD52A48DA790378294901333F2B097832
:1059B000C8BF00238B42D2B203D0264CD9B2E254E6
:1059C0000170254A116861B1244A1278D2B293421B
:1059D00036BFC2F140029B1A9B18272BC4BF01237C
:1059E0000B70194AD378DBB2180611D45A060DD5BC
:1059F000154B1B795B0609D5194B1A491B68002208
:105A00000A7003B11A70104B2C22DA7030BC704748
:105A100011790906EAD5144910480C780178C9B201
:105A20008C420DD04A1C272A84BF00210A460F4D04
:105A3000054C98BFD1B2AA5CD2B2E2710170D5E731
:105A40006C21D170D2E700BF00C0064010D2FF1F0A
:105A500011D2FF1F3CD2FF1F0CD2FF1F7DD2FF1FB0
:105A600080D2FF1F7CD2FF1F84D2FF1F14D2FF1FE2
:105A7000704700BF704700BF0B460146184600F054
:105A800001B800BF13460A460146022000F052BB8F
:105A9000014B1868704700BF88B4FF1F70B50F4EE8
:105AA0000F4D761BB61018BF002405D0013455F8F1
:105AB000043B9847A642F9D10A4E0B4D761B01F0E4
:105AC00011F8B61018BF002406D0013455F8043B75
:105AD0009847A642F9D170BD70BD00BFF06A0000C2
