:1000000000000320D1010000817600003976000055
:100010003976000039760000397600003976000024
:1000200039760000397600003976000081760000CC
:1000300081760000397600003D8A0000418B000087
:1000400081760000817600008176000081760000D4
:1000500081760000817600008176000081760000C4
:1000600081760000817600008176000081760000B4
:1000700081760000817600008176000081760000A4
:100080008176000081760000817600008176000094
:100090008176000081760000817600008176000084
:1000A00095560000A1560000817600008176000080
:1000B000817600008176000081760000259C00009A
:1000C00081760000019A000081760000519F0000B7
:1000D000817600002D9B0000817600008176000073
:1000E0008176000081760000817600008176000034
:1000F0008176000081760000817600008176000024
:100100008176000081760000817600008176000013
:1001100081760000C17C00008176000081760000BD
:1001200081760000817600008176000081760000F3
:1001300081760000817600008176000081760000E3
:100140005D9800008176000009990000817600002A
:1001500081760000817600008176000081760000C3
:100160008176000081760000AD56000081760000A7
:1001700081760000817600008176000081760000A3
:1001800081760000ED5A0000817600008176000043
:100190008176000081760000519D0000817600008C
:1001A0008176000081760000817600008176000073
:1001B0008176000081760000817600008176000063
:1001C0008176000081760000817600008176000053
:1001D0005C4B4CF2205210B51A804DF628121A8052
:1001E00000BF00BF07F050FA574B4FF030621A6063
:1001F000564A9A60564ADA60564B4FF470021A60BB
:10020000554B564A1A60564B1A78110703D51A787F
:1002100042F008021A70534B5349AA221A70534AEB
:10022000534B8B4204D252F8040F43F8040BF8E707
:10023000504B514900228B4202D243F8042BFAE77B
:100240004E494F4A002352F8230041F8230001335E
:10025000742BF8D14B4B4C4A802103F8011B93427D
:10026000FBD14A4B454A1A60494B8A221A70A3F5C2
:10027000805324225A70A0221A709A799207FCD5D2
:100280009A79D406FCD4434A937903F00C03082BE3
:10029000FAD1414B60221A7002331A78802AFCD1BD
:1002A0003C4B01221A715D225A719A799006FCD555
:1002B0009979384A4906FBD5384B394919600021EC
:1002C000596020231370937903F00C030C2BFAD19F
:1002D000344B354A1A60354A354C136813F4807331
:1002E00003D123604FF4A8531360324B324A1A6093
:1002F00000225A60072243F8042C304AC3F80C2D20
:1003000062B607F023FB2368DA0705D52C4807F00F
:100310007BFA2C4B2C4A1A602C4B1B785B0609D5B8
:10032000284C294B22689A4204D1254807F06CFAE0
:10033000002323600BF050FB07F0ACF909F000F943
:10034000FEE700BF0E20054030800440823F0400DD
:100350000100002B88ED00E0002008E0030000858C
:1003600002D0074000E00740D88B0020D0E409000D
:10037000B07D0020D88B00207C2F0120007200204F
:100380000000000000E400E064E400E008ED00E0AC
:10039000005006400040064001E007404480044011
:1003A0000000060204800440C010070010D0034083
:1003B00014D0034014E000E01FBF02000000202022
:1003C000310000001CE00340A5C3945A00F0074030
:1003D000FFFFFFFFFFFFFFFFFFFFFFFFFFFFFFFF2D
:1003E000FFFFFFFFFFFFFFFFFFFFFFFFFFFFFFFF1D
:1003F000FFFFFFFFFFFFFFFFFFFFFFFFFFFFFFFF0D
:10040000FFFFFFFFFFFFFFFFFFFFFFFFDEF9FFFF23
:1004100010B5054C237833B9044B13B10448AFF33E
:1004200000800123237010BDD88B00200000000045
:10043000CCE40900084B10B51BB108490848AFF3DC
:1004400000800848036803B910BD074B002BFBD0A0
:10045000BDE81040184700BF00000000DC8B002002
:10046000CCE40900D88B002000000000F7EE007AF1
:10047000B4EEE70AF1EE10FA06DD124945F26062C9
:1004800047F670538B527047B5EEC00AF1EE10FA82
:1004900010D4DFED0D7A0B4920EE270A45F2606299
:1004A000BDEEC00A10EE103A03F5B34319331BB288
:1004B0008B527047034945F2606245F699138B529F
:1004C000704700BF648C0020295C0F461F4B93EDE2
:1004D000007AF7EE007A77EEC77AB3EE007A67EE2D
:1004E000877A82B0FCEEE77ACDED017A9DF8043090
:1004F000102B24D8002B08BF0123154ADFED155A15
:1005000092ED007A9FED146A144AF7EE007A37EE06
:10051000C77AF6EE006A27EE257A1376C6EE077ADA
:1005200077EEA67AFDEEE77A17EE903A002B08DD1B
:10053000402BA8BF4023DBB2537602B07047102394
:10054000DBE70123537602B0704700BFD8250120B6
:10055000F01F012000442C47A6552C4708FF00201F
:10056000F2EE047A20EE270ABDEEC00AB8EEC00A09
:10057000B5EEC00AF1EE10FA15D4DFED0D7AB4EE47
:10058000E70AF1EE10FA03DD0A4A0B4BD36170471C
:10059000DFED0A7A074A20EE270AFCEEC07A17EE52
:1005A000903AD3617047034A0023D361704700BF7C
:1005B000A655AC460C00012080FFFF7F4B24BE47B0
:1005C000DFED297A38B520EE270A09F031FDB5EEC6
:1005D000C00AF1EE10FA3ED49FED247A244BF6EED9
:1005E000007AE0EE077AFCEEE77A17EE902A9A425C
:1005F00034D91A464FF450731E4C207EC10708D4DC
:10060000E18B226240F001009942207638BFE383FB
:1006100038BD216A8A4218D82146002341F8202F8C
:100620001D4640FA03F212F0010F03F1010306D058
:100630000A687F32D2090132954238BF1546082B2D
:1006400001F10401EDD1E58338BDE18B22628B42DB
:1006500088BFE38338BD01230022CDE702F17F0389
:10066000DB090133C8E700BF0000FA437978304264
:10067000809F01002CF1002010B5044609F098F885
:10068000204610BD38B5054CA4F5D7652046143C6E
:1006900009F08EF8AC42F9D138BD00BFC81F012067
:1006A000DFED507AB4EEE70AF1EE10FA2BDD9FEDA4
:1006B0004E7A9FED4E6ADFED4E6A30EE670AC0EE6D
:1006C000077AB7EE007A77EE867A37EE677AB4EE7D
:1006D000E67AF1EE10FA5DDD464B9FED457A464A2B
:1006E000F4EEC77A9361F1EE10FA4FF00003D36194
:1006F0006ADC9FED427AF4EEC77AF1EE10FA5BD530
:100700003F4B53627047DFED3F7AB4EEE70AF1EEFC
:1007100010FA36D59FED3C7A9FED346ADFED346AEE
:1007200030EE670AC0EE077AB7EE007A77EE867A87
:1007300037EE677AB4EEE67AF1EE10FA3ADCDFEDE6
:100740002F6AB4EEE67AF1EE10FA42D4F0EE476A80
:10075000FEEEC86A16EE903A9FED257A264AF4EE30
:10076000C77AF1EE10FA936131DC9FED247AF4EE52
:10077000C77AF1EE10FA2ED5214BD36100235362D4
:1007800070471D4B00224FF480319961DA611A6283
:100790005A627047DFED196AB4EEE67AF1EE10FAAC
:1007A00001D5174B99E7F0EE476AFEEEC86A16EEE0
:1007B000903A92E70F4BCFE7B0EE677ABEEEC87A79
:1007C00017EE103A536270470A4B53627047094B59
:1007D000D3E70B4BC0E7B0EE677ABEEEC87A17EEF0
:1007E000103ACAE7B81E053F90C2F53E000000006F
:1007F00000FEFF460000FF7FE818012000FEFFC654
:10080000000001808FC2F53E8FC2F5BE002310B4F8
:10081000114C4172026104600372C36041B1194618
:1008200000E0026942F82310427A01339A42F8DC70
:100830000A4B1A680AB90CE01A465369002BFBD11F
:100840005061002343618380C38083725DF8044B51
:1008500070471860F5E700BF240301009C2B0120BE
:10086000072908BF154B70B508BF43F820200C4678
:10087000064613211248154606F04AFC314600236D
:100880000A22104808F040FA0A210F4806F040FCFE
:10089000214600230A220B4808F036FA08210B48AB
:1008A00006F036FC294600230A22064808F02CFAF6
:1008B0000448BDE8704008F001BA00BFB87D0020D0
:1008C0004403010048800020580301006403010034
:1008D0002DE9F04FDFF8F090DFF8F080D9F8003024
:1008E000D8F800E003EB0E053F2D04468C4620DCD3
:1008F000324FEE00BB192A461979A14203F10803D1
:100900001ED00132402AF7D12D4A0EF101031268A0
:10091000C8F800302B4B2A4901323E441340002BCB
:10092000347186F805C01EDB0B6057F83500BDE852
:10093000F08F234A214FFBB915682A46EE00E9E7FC
:10094000BB1993E8030007EBC20957F832B099F8D6
:1009500004A099F8052089E8030047F835B083F82A
:1009600004A05A71D0E7013B63F03F0301330B60F1
:1009700057F83500BDE8F08F5D1E126892FBF3F169
:10098000EE0003FB112307EB060A07EBC30B9AE803
:1009900003000EF1010E57F83330C8F800E09BF861
:1009A00004809BF805E0C9F800508BE8030047F885
:1009B00035308AF804808AF805E0ABE72CEF002098
:1009C000CCFF00203F00008020190120C02501201D
:1009D0002DE9F043DFF888C0DFF88880DCF800609C
:1009E000D8F800E006EB0E05AE4231DA1B4F4FEAB5
:1009F000C60907EB0903324604E00132954203F1D0
:100A0000080322D01C798442F7D15C798C42F4D15E
:100A100007EB090393E8030007EBC20457F8322001
:100A200094F80490657984E8030047F8362083F849
:100A300004905D710EF1FF32731CC8F8002057F866
:100A40003600CCF80030BDE8F0834020BDE8F083EC
:100A5000FBD0024F32464FEAC609D9E72CEF0020FF
:100A600020190120C0250120DFF89CC0DCF80030EF
:100A7000002B46DD2DE9F04F224ADFF89080DFF8A9
:100A800090A085B0A2F1040E00244FF05C0906E0AE
:100A9000DCF800300134A34202F108022EDD52F8E6
:100AA00004BC09FB0B81013B91F82E100EEBC30532
:100AB000161F0029ECD195E80300DAF800700397BF
:100AC000177801975778029786E803000399CCF8C6
:100AD000003019440EEBC1060F4696E803000134BE
:100AE00085E803009DF804104EF837B0A342317139
:100AF0009DF80810717102F10802D0DC05B0BDE864
:100B0000F08F704730EF002020190120C80001202D
:100B1000C02501202DE9F041304C2368DB0782B06D
:100B20004ED52F4D2F4E2B6832682D4D934244D019
:100B30002D4B9FED2E7A1B88DFED2D6A2D4E2E4911
:100B400034682E4807EE903AF8EEE77A2C4B77EEB1
:100B5000877A1B68019387EEA67A2A602346FDEE0A
:100B6000C77A17EE902A92FBF4F4009408F0BEF8CE
:100B70003368002B1BDD234CDFF89480224F0025C7
:100B80006379227921491D48A7FB03CE4FEADE0E87
:100B90000EEB4E0EA3EB8E03DBB2013558F823307B
:100BA00008F0A4F83368AB4204F10804E8DC134809
:100BB00002B0BDE8F04108F081B802B0BDE8F081B4
:100BC000204606F081FD0028ABD0064E044D336868
:100BD0002B60204606F07EFDA5E700BF241801200B
:100BE00028EF0020C8FF0020222C012033332343AC
:100BF0003333A343C0250120700301004880002047
:100C0000CCFF00202CEF0020ABAAAAAAA003010071
:100C1000387E0020F8B5164E3368044601330D4681
:100C200033601746FFF776FFFFF71EFF2946204681
:100C3000FFF74EFE0F4B53F8241072B60E4B5C229A
:100C400002FB00300023012280F82E30C1610362D4
:100C5000027662B6094B53F8243003FB07F2803268
:100C60002946D21103F0E8FEBDE8F840FFF752BF75
:100C7000C8FF00206C7E0020C8000120B87D002045
:100C800038B504460D46FFF745FF29462046FFF7D5
:100C90009FFE402805D0054B5C2202FB003003F08C
:100CA0004FFEBDE83840FFF735BF00BFC800012048
:100CB000C0F38D0300F00300032810B59CB211D0DF
:100CC000022801D0002010BD00222146104805F066
:100CD000F3FF0F4805F0FEFFE1B20020FFF7D0FF61
:100CE000002010BD1BB2C3EB0320C0F3471001F07E
:100CF000A7FF21460246064805F0DEFF044805F03E
:100D0000E9FFE1B2FF220020FFF784FFDAE700BF2E
:100D1000D82601202DE9F84301210D2006F09AFD87
:100D200001F0B4FF0026F5B20024E2B23D4B3E488C
:100D30002946013405F076FF042CF6D10136082E41
:100D4000F1D13A4F3A4EDFF8189100233946324636
:100D50001D464FF05C084FF0010C4FF6FF744FF04A
:100D6000FF0E72B608FB0370C1F81C900D6280F88C
:100D70002E5080F818C062B646F833300133402B4D
:100D8000547182F804E0848501F15C0102F10802EB
:100D9000E7D1284D4FF440322B4605F58C619A611E
:100DA000DA611A625A6238338B424FF44034F6D11A
:100DB000FF2207210020C5F87844C5F87C44C5F817
:100DC0008044C5F88444FFF74BFD1B4A1B491C486F
:100DD000012301E0013304320B2B21D0102B1160D1
:100DE000F8D1184B1848194E01241C604FF4B47107
:100DF00008F0AEFB4FF480331549164A33621648AB
:100E00008B614FF4004513625362CD6102F0BAFC6E
:100E10005A21114802F054FD104B1C60BDE8F883C4
:100E20001060D7E7B10C0000D8260120C8000120CF
:100E30002CEF00209C2001206C7E00203803010054
:100E40005C04010088E100E00002FF1F0C000120AB
:100E5000B018012070250120588C002008E100E026
:100E600028030100F8B570EE607A9FED3E7AF0EE4F
:100E7000E77AF4EEC77A2DED028BF1EE10FA089EB8
:100E800005460C461F4628DD0378B0EE408A4BB974
:100E900012B1104608F058FC17B1384608F054FC5F
:100EA00001232B7016B1B0EE480AB0476CB3B7EE11
:100EB000007A78EE477ADFED2C6A77EE877AF4EEE7
:100EC000E67AF1EE10FA23DC9FED287AF4EEC77A89
:100ED000F1EE10FA35D5264B1BE00378ABB1F0EEFE
:100EE000608A12B1104608F063FC17B1384608F06A
:100EF0005FFC24B100224FF48033A261E36116B19C
:100F0000B0EE680AB04700232B70BDEC028BF8BD31
:100F1000184B9FED157AA361F7EE007A37EEC88A79
:100F2000B4EEC78AF1EE10FA19DCDFED107AB4EEF8
:100F3000E78AF1EE10FA0BD50D4BE361BDEC028BA5
:100F4000F8BDB0EE677ABEEEC87A17EE103AE0E769
:100F5000F0EE487AFEEEC87A17EE903AEDE7054BD0
:100F6000EBE700BF0000003400FEFF4600FEFFC6B6
:100F7000000001800000FF7F70B52DED088BCB4D88
:100F8000CB4C92B006F09AF800280DDD23684F2B69
:100F900000F36B8106F056F823685A1CE85422606F
:100FA00006F08CF80028F1DCC04902A808F0FEF930
:100FB000C0490EA808F0FAF90EA902A808F086FAAE
:100FC00004460EA808F0B2F9002C55DDB84E06A86C
:100FD0002346002202A908F08BFA3368B34AA11C09
:100FE000591A0023281931601D469C42C4BFC15CB8
:100FF000117003F10103D8BF1570602B02F10102DB
:10100000F3D1202106A808F051FA002104460AA8CD
:1010100008F0CCF9631C00F0DD812346002206A90C
:101020000EA808F065FA0EA90AA808F007FA0EA89B
:1010300008F07CF90AA9A04807F01AFE9E4807F0BC
:101040003DFE9E490AA808F001FA002800F0C78179
:1010500024219B4806F05CF8974807F02FFE0221F8
:10106000984806F055F8944807F028FE0AA808F0BA
:101070005DF906A808F05AF902A808F057F901F03E
:1010800089FE0D2001F0E0FEB7EE088A012020EE77
:10109000088A01F08BFE022001F088FE0320F0EEAA
:1010A000409A01F083FE0420F0EE40BA01F07EFE8B
:1010B0000520B0EE409A01F079FE0620B0EE40BA6D
:1010C00001F074FE0720B0EE40AA01F06FFE7E4CE6
:1010D0000820F0EE40AA01F069FE092001F066FE4A
:1010E000D4ED007A9FED797A794B7BEEE77A012295
:1010F000F0EEE77AF4EEC77AF1EE10FAF0EE408AFD
:101100001A600DD9734B0093B0EE6B0A724B734AA1
:101110007349DFED740A7448C4ED00BAFFF7A2FE0C
:10112000724B9FED6A7AD3ED007A7AEE677AF0EE31
:10113000E77AF4EEC77AF1EE10FA40F2A78083ED79
:1011400000AAB4EEEAAA6A4B0093F1EE10FAB4BF1B
:10115000B0EE6A0AB0EE4A0A664B674A6749DFEDAD
:10116000610A6748FFF77EFE664C9FED587AD4ED22
:10117000007A7BEE677AF0EEE77AF4EEC77AF1EE6A
:1011800010FA0DD9604B0093B0EE4B0A5F4B604AEA
:101190006049DFED540A604884ED00BAFFF762FE53
:1011A0005E4C9FED4A7AD4ED007A79EEE77AF0EE64
:1011B000E77AF4EEC77AF1EE10FA0DD9584B0093A6
:1011C000B0EE690A574B584A5849DFED460A58486D
:1011D000C4ED009AFFF746FE564C9FED3C7AD4EDE5
:1011E000007A79EE677AF0EEE77AF4EEC77AF1EEFC
:1011F00010FA0DD9504B00930023B0EE490A19465E
:101200004E4A4F4884ED009AF6EE000AFFF72AFE98
:101210004C4C9FED2E7AD4ED007A78EEE77AF0EE22
:10122000E77AF4EEC77AF1EE10FA0CD900230093B6
:10123000B0EE680A1A464449DFED2A0A4348C4ED75
:10124000008AFFF70FFEDFED427AB4EEE78AF1EE97
:1012500010FA00F38980DFED3F7AB4EEE78AF1EE11
:1012600010FA40F1B0803C487FE008213B4805F08F
:101270004FFF114807F022FD394B002203F16001B6
:10128000226003F8012F9942FBD17BE6354BD3ED69
:10129000007A7AEEE77AF0EEE77AF4EEC77AF1EECA
:1012A00010FA7FF661AFC3ED00AA4AE7F88B002081
:1012B000F48B0020BC03010048800020C003010023
:1012C000C40301002004010070FE0020000000346F
:1012D00088E100E06D04000028FF0020B8FE002037
:1012E0003C18012000000000B27E0020D82501201B
:1012F000CD0400003CFF002030000120D4FF00207E
:10130000B47D0020A82501206105000050FF0020C9
:101310004400012034250120687E002074FE002056
:10132000C1050000C81701208CFF002058000120D3
:10133000B17E0020D0FF0020A1060000DC170120B4
:10134000697E00206C25012090000120B07E0020E5
:1013500000FEFF4600FEFFC600000180B003010052
:10136000F78B0020F01F01202748284C2849294AE4
:10137000294E012323600C680A940A9C1568B06109
:10138000A54215D209680E9124490E980C7800F5F3
:101390007A7010609CB90B7019460D2006F046FA61
:1013A0001F4B2048198807F0EFFC1E4807F086FC09
:1013B000142006F079FA12B0BDEC088B70BD002342
:1013C0000B701946E9E7F0EE487AFEEEC87A17EEA0
:1013D000900ACAE706A90AA808F028F82AE61249DE
:1013E0000AA808F033F838B11221104805F090FE31
:1013F0000C4807F063FC32E611210D4805F088FE29
:10140000084807F05BFC2AE60000FF7F08E100E0E7
:10141000142A012004EF00207C200120302001202C
:10142000A02B012048800020EC030100F8030100FC
:101430000C0401002DE9F04FB44BDFF8DCB2196861
:10144000B34CCBF80040002283B08BF80920CBF8D6
:1014500010208BF80820CBF80C2011B901F097BBB5
:1014600019464B69002BFBD1C1F814B00025A94ADD
:10147000A948CBF81450ABF80450ABF806508BF8E1
:101480000A50CBF8002007F097FDA44BA34FA44EC1
:10149000DFF8988203F1280218460421FFF7B6F915
:1014A0004FF480332A4629469E48BB61FB613B626C
:1014B0007B623E60FFF7AAF99A4B9B4A994F1A60EC
:1014C00001204FF4804308F554612A463B6288F8B6
:1014D00008502B46C8F80C50C8F8004088F809009E
:1014E000C8F81010454600E0296941F8223098F804
:1014F00009108E4801329142F6DC844B196811B90B
:1015000001F049BB19464B69002BFBD1C1F814808F
:101510004FF0000A864D8748C8F814A051464FF492
:101520005062A8F804A0A8F806A088F80AA0C8F895
:10153000005088F818A0A8F81AA0A8F81CA0A8F8CD
:101540001EA00AF0E5FD7C4BDFF8389203F11C0287
:1015500018460121FFF75AF9774B784A1A60784B01
:10156000042103F128021846FFF750F9754B03F1E7
:1015700018021846724B4FF4803502219D61DD61DF
:101580001D625D621E60FFF741F96E4B6E4A6F4847
:101590001A6001F0EFFF6E4B042103F12802184698
:1015A000FFF734F96B4B03F128021846684B04210E
:1015B0009D61DD611D625D621E60FFF727F9664B6C
:1015C00003F128021846634B04219D61DD611D6211
:1015D0005D621E60FFF71AF9604B03F1280218469E
:1015E0005D4B04219D61DD611D625D621E60FFF740
:1015F0000DF95B4B03F128021846584B04219D61FD
:10160000DD611D625D621E60FFF700F9554B03F15D
:1016100034021846524B02219D61DD611D625D62FC
:101620001E60FFF7F3F84F4B4F485049504A18607F
:101630009961DA61C3F828A0C3F82CA0C3F830A0E0
:101640004C4B4D4903F12802464B4FF48050186231
:101650005962A2F128000421FFF7D8F8474B03F1A3
:101660001C021846434B01219D61DD611D625D62D4
:101670001E60FFF7CBF8414A414B95613F4DC9F8D9
:101680000040022009F118012B605246554689F8A6
:1016900008A0C9F80CA089F80900C9F81010CE46B6
:1016A00001E0DEF8101041F8225099F80930354871
:1016B00001329342F5DC154B196811B901F06EBA8D
:1016C00019464B69002BFBD1C1F8149000252E4B15
:1016D0002E4A2C48C9F81450A9F80450A9F806500D
:1016E00089F80A500093C9F8002007F041FD009BDB
:1016F0004FF0020E03F1180183F809E02A4628464C
:101700001C601D72DD6019619E4643E09C2B012028
:10171000240301005CE1090078FE0020702501200F
:101720001CDB09000C00012040DB09002CF100202B
:1017300064DB09006CF1002008FF002004DB0900D5
:10174000B01801200418012028DB0900648C002057
:101750003C180120D4FF002034250120580001202E
:1017600090000120F41F012034DB090000B28E0438
:10177000E8728E04E818012080F9855A7C20012047
:1017800010DB090008EF00205C20012068E109005F
:10179000DEF8101041F82200597A044D01329142CE
:1017A000F6DC034A116831B901F0FBB95C20012075
:1017B0009C2B012011464A69002AFBD14B61002570
:1017C000CA49CB4ACB485D619D80DD809D7219601E
:1017D0000092019303F0B0FA009AC74B5360104691
:1017E000C2F800B015725572D560157407F0ACFFE1
:1017F000009ADFF854A3C149C14F1046C14A0AF00C
:10180000A1F8BD4BCAF8043050464FF001038AF8E6
:1018100008308AF80930CAF800B0CAF80C508AF8C3
:10182000105007F091FFB74AB449DFF820B3504693
:101830000AF088F8B04B3B603846B34BDFF810A392
:101840007B603D727D72FD603D7407F07DFFAD4AA7
:10185000AA4938460AF076F8A74BCAF80030AB4BD5
:10186000CAF8043050464FF001038AF809308AF86C
:101870000850CAF80C508AF8105007F065FFA14ACA
:101880009E49A34F50460AF05DF89B4BCBF80030C1
:10189000A04BCBF8043058464FF00103DFF8B4A258
:1018A0008BF809308BF80850CBF80C508BF810509F
:1018B00007F04AFF934A914958460AF043F8964B7D
:1018C000CAF80030954BCAF8043050464FF0010377
:1018D000DFF884B28AF809308AF80850CAF80C5048
:1018E0008AF8105007F030FF864A844950460AF0C3
:1018F00029F88B4BCBF8003058468A4BDFF85CA2B6
:10190000CBF804308BF808508BF80950CBF80C500A
:101910008BF8105007F018FF7A4A784958460AF0B9
:1019200011F87E4BCAF8003050467F4BDFF830B2DA
:10193000CAF804308AF808508AF80950CAF80C50DE
:101940008AF8105007F000FF6E4A6C49504609F0C3
:10195000F9FF6D4BCBF8003058466C4BDFF804A212
:10196000CBF804308BF808508BF80950CBF80C50AA
:101970008BF8105007F0E8FE624A6049584609F0BB
:10198000E1FF624BCAF800305046654BCAF804309C
:101990008AF808508AF80950CAF80C508AF8105092
:1019A00007F0D2FE574A5549DFF8BCB1504609F05E
:1019B000C9FF564B3B605B4B7B6038464FF00103E1
:1019C0007B723D72FD603D7407F0BEFE4D4A4B498F
:1019D000DFF898A1384609F0B5FF524BCBF800303C
:1019E00058464E4BCBF804308BF808508BF8095012
:1019F000CBF80C508BF8105007F0A6FE414A3F4937
:101A00004A4F584609F09EFF464BCAF80030464BF5
:101A1000CAF8043050464FF001038AF809308AF8BA
:101A20000850CAF80C508AF8105007F08DFE334960
:101A3000344ADFF83CB1504609F084FF3C483D4A47
:101A4000057280E804014572C560057407F07CFEEC
:101A50002C4A2A493648DFF81CA109F073FF324BA3
:101A60003B603846334B7B603D727D72FD603D7458
:101A700007F06AFE2149234A384609F063FF2E48E1
:101A8000294A02602D4A42604FF0010242720572FB
:101A9000C560057407F058FE1A4A18492648284FB1
:101AA00009F050FF234BCBF8043058464FF00103A8
:101AB0008BF80930CBF800808BF80850CBF80C502D
:101AC0008BF8105007F040FE0C490E4ADFF8A88052
:101AD000584609F037FF1B48164A0260174A426011
:101AE00005724572C560057448E000BF58DB090007
:101AF00090FE00205C200120702501207906000066
:101B0000B8FE0020B07D0020648C00203C1801202D
:101B1000DC1F0120900001200C000120041801208E
:101B200008FF0020D4FF0020342501208CFF002076
:101B300078FF0020B0180120A0FF002058000120ED
:101B400048200120C8170120A4FE0020E0FE00204C
:101B5000CCFE0020F4FE00203000012044000120D3
:101B600028FF00203CFF002050FF002064FF0020E1
:101B7000B4FF0020DC1701207418012007F0E4FDF9
:101B8000994A9A499A48DFF8ACB209F0DBFE994BC2
:101B9000CAF800305046984BCAF804308AF808500A
:101BA0008AF80950CAF80C508AF8105007F0CCFD9A
:101BB0008E498D4A504609F0C5FE90488D4A026014
:101BC0008F4A426005724572C560057407F0BCFD1E
:101BD0008649854A8948DFF860A209F0B3FE894842
:101BE000854A0260864A42604FF0010242720572E5
:101BF000C560057407F0A8FD7B4A7C49814809F05F
:101C0000A1FE7D4B3B6002217D4B7B600322384669
:101C100039727A72FD603D7407F096FD7349724A1D
:101C2000384609F08FFE7848754A0260774A42606C
:101C300005724572C560057407F086FD6B496A4AF6
:101C4000714809F07FFE7248704A0260714A426032
:101C500005724572C560057407F076FD624A6349F6
:101C60006B4809F06FFE6B4B88F80850404688E8D7
:101C7000080288F80950C8F80C5088F8105007F08E
:101C800063FD594A5949404609F05CFE4FF0010393
:101C90008BF809305F4B8BF8085058468BE80802E8
:101CA000CBF80C508BF8105007F04EFD4F494E4AC0
:101CB000DFF88881584609F045FE5748019B554A90
:101CC00043600260009305724572C560057407F0B9
:101CD0003BFD4649444A504809F034FE4F48009BBA
:101CE00043604FF0010242724A4A02600572C560C9
:101CF000057407F029FD3C4A3C49484809F022FE9A
:101D00004749484BD1F800E0474A484810604FF037
:101D10000A0C77461C6029465D721D611D72DD60EC
:101D200082F808C04FF04040AE46002F2BD03D4611
:101D300000E015466A69002AFBD16B619A45197665
:101D40005961596299809962D9809985997283F80D
:101D50002E10C3F800801963D96159631962996321
:101D6000D963196459649964D9641865596599658A
:101D70000DD0DC6583F86510D96683F86410996628
:101D80005C33002FD3D11F464FF0010ED6E73A4601
:101D90007746002F40F008872549DFF8849001F549
:101DA00093684FF0040C00254FF4803041F8284C24
:101DB00001F81FCC41F8181C01F8205C41F81C5CAC
:101DC000A1F128070A46002301E051F8182C42F837
:101DD000235011F81F2C01339A42F6DC104B1A687D
:101DE0007ABB00F0D0BE00BFB07D002079060000B5
:101DF000C817012058000120F41F0120F01701200E
:101E0000E8180120AC2501202818012090000120AD
:101E1000C42501207C2001209C18012034200120B1
:101E20009C2B0120C8000120588C0020E8DA090012
:101E3000C4200120881801206C1701204CDB090008
:101E40001A465369002BFBD1576141F8145C21F805
:101E5000245C21F8225C01F81E5C41F8286C41F8F2
:101E6000100C41F80C0C41F8080C41F8040C383106
:101E700041454FF0000B99D1FC4CDFF8F893FC4D35
:101E8000C9F80450A4F15C034FF00108C9F8003010
:101E9000484689F808B089F809B0C9F80CB089F843
:101EA00010B0022707F050FC04F15C0609F11400A1
:101EB000C9F81850C9F8144089F81CB0C9F820B006
:101EC00089F824B089F81D8007F03EFC09F128004C
:101ED000C9F82C50C9F8286089F830B0C9F834B076
:101EE00089F838B089F83170032607F02DFC04F129
:101EF000B80309F13C00C9F84050C9F83C3089F8F2
:101F000044B0C9F848B089F84CB089F8456007F08A
:101F10001BFC05F5856309F15000C9F85050C9F85C
:101F2000543089F858B089F859B0C9F85CB089F8CC
:101F300060B007F009FC04F58A73C9F8643005F154
:101F4000380309F16400C9F8683089F86CB089F881
:101F50006DB0C9F870B089F874B007F0F5FB04F5FE
:101F6000B87305F1380209F17800C9F87C20C9F886
:101F7000783089F880B089F88180C9F884B089F810
:101F800088B007F0E1FB04F5E67305F1380209F1CA
:101F90008C00C9F89020C9F88C3089F894B089F881
:101FA0009570C9F898B089F89CB007F0CDFB05F1A1
:101FB000380204F50A73C9F8A42009F1A000C9F891
:101FC000A03089F8A8B089F8A960C9F8ACB089F840
:101FD000B0B007F0B9FB05F13803C9F8B43005F526
:101FE000856309F1B400C9F8B83089F8BCB089F844
:101FF000BD80C9F8C0B089F8C4B007F0A5FB04F5EE
:102000002173C9F8C83005F1700309F1C800C9F897
:10201000CC3089F8D0B089F8D1B0C9F8D4B089F8FB
:10202000D8B007F091FB04F5387305F1700209F19F
:10203000DC00C9F8E020C9F8DC3089F8E4B089F8A0
:10204000E580C9F8E8B089F8ECB007F07DFB04F54D
:102050004F7305F1700209F1F000C9F8F420C9F8D6
:10206000F03089F8F8B089F8F970C9F8FCB089F84F
:1020700000B107F069FB05F1700204F56673C9F859
:10208000082109F58270C9F8043189F80CB189F882
:102090000D61C9F810B189F814B107F055FB05F1CD
:1020A0007003C9F8183105F5856309F58C70C9F816
:1020B0001C3189F820B189F82171C9F824B189F857
:1020C00028B107F041FB04F57D73C9F82C3105F107
:1020D000A80309F59670C9F8303189F834B189F848
:1020E00035B1C9F838B189F83CB107F02DFB04F5DA
:1020F0008A6305F1A80209F5A070C9F84421C9F85E
:10210000403189F848B189F84981C9F84CB189F85A
:1021100050B107F019FB04F2AC4305F1A80209F530
:10212000AA70C9F85821C9F8543189F85CB189F806
:102130005D71C9F860B189F864B107F005FB05F17C
:10214000A80204F5A163C9F86C2109F5B470C9F8B7
:10215000683189F870B189F87161C9F874B189F88A
:1021600078B107F0F1FA05F1A803C9F87C3105F55B
:10217000856309F5BE70C9F8803189F884B189F8A2
:102180008561C9F888B189F88CB107F0DDFA04F2ED
:102190006453C9F8903105F1E00309F5C870C9F836
:1021A000943189F898B189F899B1C9F89CB189F846
:1021B000A0B107F0C9FA04F5B86305F1E00209F52A
:1021C000D270C9F8A821C9F8A43189F8ACB189F84E
:1021D000AD81C9F8B0B189F8B4B107F0B5FA04F22D
:1021E0001C6305F1E00209F5DC70C9F8BC21C9F8EF
:1021F000B83189F8C0B189F8C171C9F8C4B189F89A
:10220000C8B107F0A1FA05F1E00204F5CF63C9F8FF
:10221000D02109F5E670C9F8CC3189F8D4B189F834
:10222000D561C9F8D8B189F8DCB107F08DFA05F1AC
:10223000E003C9F8E03105F57C7309F5F070C9F8E1
:10224000E43189F8E8B189F8E9B1C9F8ECB189F865
:10225000F0B107F079FA04F2D463C9F8F43105F566
:102260008C7309F5FA70C9F8F83105E024010120F2
:102270009C2001202419012089F8FCB189F8FDB1C6
:10228000C9F800B289F804B207F05EFA04F5E66313
:1022900005F58C7209F50270C9F80C22C9F80832EC
:1022A00089F810B289F81182C9F814B289F818B205
:1022B00007F04AFA04F28C7305F58C7209F5077081
:1022C000C9F82022C9F81C3289F824B289F825728D
:1022D000C9F828B289F82CB207F036FA05F58C72E5
:1022E00004F5FD63C9F8342209F50C70C9F83032E1
:1022F00089F838B289F83962C9F83CB289F840B235
:1023000007F022FA05F58C73C9F8443205F57C73A1
:1023100009F51170C9F8483289F84CB289F84D8234
:10232000C9F850B289F854B207F00EFA04F6440323
:10233000C9F8583205F5A87309F51670C9F85C326A
:1023400089F860B289F861B2C9F864B289F868B2F4
:1023500007F0FAF904F50A6305F5A87209F51B7090
:10236000C9F87022C9F86C3289F874B289F875829C
:10237000C9F878B289F87CB207F0E6F904F6FC03F4
:1023800005F5A87209F52070C9F88422C9F88032D1
:1023900089F888B289F88972C9F88CB289F890B244
:1023A00007F0D2F905F5A87204F65813C9F8982277
:1023B00009F52570C9F8943289F89CB289F89D62B4
:1023C000C9F8A0B289F8A4B207F0BEF905F5A87360
:1023D000C9F8A83205F57C7309F52A70C9F8AC3242
:1023E00089F8B0B289F8B172C9F8B4B289F8B8B254
:1023F00007F0AAF904F6B413C9F8BC3205F5C473A2
:1024000009F52F70C9F8C03289F8C4B289F8C5B28D
:10241000C9F8C8B289F8CCB207F096F904F521637F
:1024200005F5C47209F53470C9F8D422C9F8D03260
:1024300089F8D8B289F8D982C9F8DCB289F8E0B253
:1024400007F082F904F66C2205F5C47309F53970BA
:10245000C9F8E832C9F8E42289F8ECB289F8ED72DB
:10246000C9F8F0B289F8F4B207F06EF904F6C822A0
:1024700005F5C473C9F8F82209F53E70C9F8FC32B5
:1024800089F800B389F80163C9F804B389F808B37F
:1024900007F05AF905F5C473C9F80C3305F57C73D8
:1024A000C9F8103309F5437089F814B389F8156336
:1024B000C9F818B389F81CB307F046F905F5E07AB6
:1024C00004F6243209F54870C9F82023C9F824A37A
:1024D00089F828B389F829B3C9F82CB389F830B33F
:1024E00007F032F904F5386209F54D70C9F838A3E0
:1024F000C9F8342389F83CB389F83D83C9F840B35F
:1025000089F844B307F020F904F6DC3209F552707B
:10251000C9F84CA3C9F8482389F850B389F8517316
:10252000C9F854B389F858B307F00EF904F63842E5
:10253000C9F85C2309F55770C9F860A389F864B33A
:1025400089F86563C9F868B389F86CB307F0FCF8DB
:1025500005F56E73C9F8743309F55C70C9F870A39A
:1025600089F878B389F879B3C9F87CB389F880B36E
:1025700007F0EAF805F5FC7A04F6944209F5617073
:10258000C9F88423C9F888A389F88CB389F88DB376
:10259000C9F890B389F894B307F0D6F804F54F6200
:1025A00009F56670C9F89CA3C9F8982389F8A0B307
:1025B00089F8A183C9F8A4B389F8A8B307F0C4F8CF
:1025C00004F64C5209F56B70C9F8B0A3C9F8AC23F6
:1025D00089F8B4B389F8B573C9F8B8B389F8BCB34E
:1025E00007F0B2F804F6A852C9F8C02309F57070D4
:1025F000C9F8C4A389F8C8B389F8C963C9F8CCB3CA
:1026000089F8D0B307F0A0F805F56E73C9F8D83390
:1026100009F57570C9F8D4A389F8DCB389F8DD83AE
:10262000C9F8E0B389F8E4B307F08EF805F50C7A41
:1026300004F6046209F57A70C9F8E823C9F8ECA336
:1026400089F8F0B389F8F1B3C9F8F4B389F8F8B3AD
:1026500007F07AF804F5666209F57F70C9F800A4FE
:10266000C9F8FC2389F804B489F80584C9F808B4CA
:1026700089F80CB407F068F804F6BC6209F58260CA
:10268000C9F814A4C9F8102489F818B489F8197481
:10269000C9F81CB489F820B407F056F804F618728B
:1026A000C9F8242409F22440C9F828A489F82CB4D4
:1026B00089F82D64C9F830B489F834B407F044F8C7
:1026C00005F56E73C9F83C3409F58760C9F838A47C
:1026D00089F840B489F84174C9F844B489F848B419
:1026E00007F032F805F51A7A04F6747209F24C40D4
:1026F000C9F84C24C9F850A489F854B489F855B4E1
:10270000C9F858B489F85CB407F01EF804F57D6286
:1027100009F58C60C9F864A4C9F8602489F868B424
:1027200089F86984C9F86CB489F870B407F00CF8BA
:10273000F64AC9F878A409F27440C9F8742489F8F3
:102740007CB489F87D74C9F880B489F884B406F043
:10275000FBFFEF4AC9F88824C9F88CA409F59160F9
:1027600089F890B489F89164C9F894B489F898B458
:1027700006F0EAFF05F56E73C9F8A03409F29C4033
:10278000C9F89CA489F8A4B489F8A564C9F8A8B4C8
:1027900089F8ACB406F0D8FF05F5287ADD4AC9F807
:1027A000B02409F59660C9F8B4A489F8B8B489F8DA
:1027B000B9B4C9F8BCB489F8C0B406F0C5FF04F5D3
:1027C0008A5209F2C440C9F8C8A4C9F8C42489F8D7
:1027D000CCB489F8CD84C9F8D0B489F8D4B406F063
:1027E000B3FFCD4AC9F8DCA409F59B60C9F8D82429
:1027F00089F8E0B489F8E174C9F8E4B489F8E8B478
:1028000006F0A2FFC54AC9F8EC24C9F8F0A409F201
:10281000EC4089F8F4B489F8F564C9F8F8B489F89B
:10282000FCB406F091FF05F56073C9F8043509F5AD
:10283000A060C9F800A589F808B589F809B5C9F8F4
:102840000CB589F810B506F07FFF05F5367AB44A65
:10285000C9F8142509F21450C9F818A589F81CB54F
:1028600089F81DB5C9F820B589F824B506F06CFFC4
:10287000AC4AC9F82CA509F5A560C9F8282589F83E
:1028800030B589F83185C9F834B589F838B506F01E
:102890005BFFA54AC9F840A509F23C50C9F83C25A0
:1028A00089F844B589F84575C9F848B589F84CB533
:1028B00006F04AFF9D4AC9F85025C9F854A509F504
:1028C000AA6089F858B589F85965C9F85CB589F8DE
:1028D00060B506F039FF05F56073C9F8683509F28F
:1028E0006450C9F864A589F86CB589F86D85C9F894
:1028F00070B589F874B506F027FF05F5447A8C4A5F
:10290000C9F8782504F5A15409F5AF6089F880B5B8
:1029100089F881B5C9F884B589F888B5C9F87CA566
:1029200006F012FF09F28C50C9F88C45C9F890A541
:1029300089F894B589F89585C9F898B589F89CB552
:1029400006F002FF04F15C0209F5B460C9F8A025A5
:10295000C9F8A4A589F8A8B589F8A975C9F8ACB5CE
:1029600089F8B0B506F0F0FE04F1B802C9F8B42554
:1029700009F2B450C9F8B8A589F8BCB589F8BD65A5
:10298000C9F8C0B589F8C4B506F0DEFE05F5607378
:10299000C9F8CC3509F5B960C9F8C8A589F8D0B52A
:1029A00089F8D175C9F8D4B589F8D8B505F5527448
:1029B00006F0CAFE5F4AC9F8DC2509F2DC5089F846
:1029C000E4B589F8E5B5C9F8E8B589F8ECB5C9F812
:1029D000E04506F0B9FE584AC9F8F02509F5BE6091
:1029E000C9F8F44589F8F8B589F8F985C9F8FCB54E
:1029F00089F800B606F0A8FE504AC9F8042609F284
:102A00000460C9F8084689F80CB689F80D76C9F84B
:102A100010B689F814B606F097FE494BC9F8183677
:102A200009F5C360C9F81C4689F820B689F8216603
:102A3000C9F824B689F828B606F086FE04F13803F2
:102A400009F22C60C9F83036C9F82C4689F834B63A
:102A500089F83566C9F838B689F83CB606F074FED0
:102A600005F58C6504F1E00309F5C860C9F8403646
:102A7000C9F8445689F848B689F849B6C9F84CB639
:102A800089F850B606F060FE04F1A80309F254601C
:102A9000C9F85436C9F8585689F85CB689F85D8685
:102AA000C9F860B689F864B606F04EFE04F170030A
:102AB00009F5CD60C9F86836C9F86C5689F870B662
:102AC00089F87176C9F874B689F878B606F03CFED4
:102AD00004F1380309F27C60C9F87C36C9F88056E5
:102AE00089F884B689F88566C9F888B689F88CB6FD
:102AF00006F02AFE134BC9F8943609F5D26089F81E
:102B00009976C9F8905689F898B61DE050110120C1
:102B1000AC11012008120120C01201201C13012059
:102B200078130120D4130120301401208C140120CB
:102B3000E814012058160120B416012010170120B6
:102B40006C17012070250120C9F89CB689F8A0B641
:102B500006F0FAFD164BC9F8A45609F2A460C9F8AC
:102B6000A83689F8ACB689F8AD66C9F8B0B689F868
:102B7000B4B606F0E9FD0F4A0F49584603B0BDE868
:102B8000F04F08F0DFBEC9F80070FFF75EB9C3F878
:102B900000B0FEF76BBC1860FEF7BABC1860FEF719
:102BA00095BD1560FEF70BBE044B1A60FFF7F4B835
:102BB00070250120B07D0020850600009C2B01209F
:102BC00000207047704700BF704700BF38B5074C02
:102BD000074DE56704F18C0003F098FC204640F8AF
:102BE000105BBDE8384003F091BC00BFE025012038
:102BF00034D80900F0B5114F054697E80F00C5B06D
:102C000004AE8DE80F0007F1100130464FF48072DA
:102C100004F07EF96C4606EB051554F8040B55F8E4
:102C2000041BC0B2C9B204F001FEB442F5D12720A2
:102C300045B0BDE8F04004F081BC00BF54D80900A5
:102C4000542819D9A9280BD95630C1B2A1EB810259
:102C5000013A01EB4101D2B2C9B2002003F04ABDF2
:102C60005538C2B2A2EB8200013802EB4202C0B278
:102C7000D2B2002103F03EBDA0EB8001013900EB90
:102C80004000C9B2C0B2002203F034BD2DE9F041CA
:102C9000012182B0332004F0DDFD0121342004F055
:102CA000D9FD0121282004F0D5FD0121352004F0B3
:102CB000D1FD0121292004F0CDFD0021292004F0BF
:102CC000B5FD02211C2004F0C5FD02211B2004F0EB
:102CD000C1FD02211A2004F0BDFD00212F2004F0C7
:102CE000B9FD05E0274804F013FA274805F0E6FF90
:102CF000264803F071FF17210028F3D00024C4EB0D
:102D00000420C0F34710FFF79BFFA1B202461F4803
:102D100003F0D2FF1D4803F0DDFF01340A2004F068
:102D2000C3FD202CEBD14FF0000801275FFA88F695
:102D30000024E5B22946032332461448009703F0E5
:102D400087FF2946022332461048009703F080FF90
:102D50000023294632460D4803F098FF0B4803F044
:102D6000B9FF01340A2004F09FFD082C4FF0010345
:102D7000DFD19844B8F1040FD8D1054A137002B0DE
:102D8000BDE8F08164D9090048800020D8260120E0
:102D9000DC250120034B1B7803B97047024803F080
:102DA000B5BF00BFDC250120D8260120431E10B589
:102DB000082B2CD8DFE803F0111315212325272930
:102DC00005000220FFF716FF07EE100ADFED197A63
:102DD000B8EEC77A87EE270A10BD0020F2E701207F
:102DE000F0E7232004F0AAFB07EE100ADFED117ACA
:102DF000B8EEC77A87EE270A10BD2420F2E71F201D
:102E0000F0E72020EEE72120ECE72220EAE7044665
:102E10001421094804F07CF9214600230A220748BE
:102E200005F072FF1721064804F072F99FED050ABC
:102E300010BD00BF00C07F44A8D909004880002011
:102E400090D9090000000000431E10B50C2B2CD8AF
:102E5000DFE803F0131517191B1D1F212325272950
:102E600007000320FFF7C6FE07EE100ADFED187A11
:102E7000B8EEC77A87EE270A10BD0A20F2E70B20CA
:102E8000F0E70420EEE70520ECE70620EAE707205C
:102E9000E8E70C20E6E70D20E4E70E20E2E70F204C
:102EA000E0E70920DEE70820DCE704460F210948B7
:102EB00004F02EF9214600230A22074805F024FFDA
:102EC0001721064804F024F99FED050A10BD00BF44
:102ED00000C07F44C0D909004880002090D9090073
:102EE0000000000070B42C4B03600A7902714A792B
:102EF00042718A68826091F90C2002730546274A64
:102F0000487B68732B612A600B7D2B754B7D6B753D
:102F10008B69AB6191F91C302B774B7F6B778C7F82
:102F20000A8C4B8CC87F1E4E2E61AC77E8772A84C2
:102F30006B8491F9243085F8243091F8253085F898
:102F400025308B6AAB6291F82C3085F82C3091F8E3
:102F50002D3085F82D3091F82E3085F82E3091F8EF
:102F60002F3085F82F308B8E0A6B2A63AB8691F851
:102F7000383085F8383001F13C040FCC05F13C06BF
:102F80000FC60FCC0FC60FCC0FC694E80F0086E813
:102F90000F00284670BC704744E1090034D809008E
:102FA0000CD8090070B57C2006F09CFC174C184D1D
:102FB00006462E2103F0D0FD31462046FFF792FF52
:102FC0007C2006F08FFC2F21064603F0C5FD31461C
:102FD00004F17C00FFF786FF2A460E49002008F026
:102FE000B1FC082006F07EFC2146064602230122A1
:102FF00003F0EAFD96E80300074B83E803002A4646
:1030000018460649BDE8704008F09CBCE025012048
:10301000B07D0020CD2B0000D8260120C92B000058
:1030200010B5044605F08CFC204610BD024A034949
:10303000034808F087BC00BFB07D002021300000AD
:10304000E0260120024A0349034808F07BBC00BF88
:10305000B07D002021300000E82601202DE9F04F4E
:103060009BB0044606F0AAFA1590002800F073827F
:103070000021204606F03AFB1690002800F07482EA
:10308000354B199345F24C6945F24E6534F90930D8
:10309000039345F25060635F189345F25267235ED5
:1030A000179345F25466E35F049345F25661A35FBC
:1030B000079345F25862635E0693A35E059304F599
:1030C000AC431A4604F5C5491E46CDF8409002F1BE
:1030D0003C093E320A9206F140020B9206F142028E
:1030E0000C9206F144020D9206F146020E9206F190
:1030F0004802109B0F9232464A3202921A46183208
:1031000010921A461A3245F25A6A119245F25E68D6
:103110001A4645F25C6C45F2606E1C321E3334F97F
:103120000AB0129234F9088034F90CC034F90EE078
:10313000CDF804901393169B1798189DCDF820B0E6
:103140009A1C0092159A03F5817302320992149326
:103150004FF0000A02E000BFD0D90900009B33F90C
:10316000022F009302EB021202EB0222520022F322
:103170004F42019B03991E8804EB460701FB0CF9A3
:10318000B7F91C3003FB089929F3CF390FFA89F1FD
:10319000039112B201FB0EF929F3CF39914409F3DF
:1031A0000F090136A7F81C900199B6B240F25B47AF
:1031B000BE4294BF0E80A1F800A00A990E8804EBCD
:1031C000460905FB0CF5B9F9D4783B4407FB0855D3
:1031D00025F3CF352DB205FB0EF727F3CF37174474
:1031E00007F30F070136A9F8D478B6B240F2A34727
:1031F000BE428ABF0A990E80A1F800A00B990E88E2
:1032000004EB460707F590571C37B7F9009000FB11
:103210000CF04B4409FB080020F3CF3000B200FB58
:103220000EF929F3CF39914409F30F090136A7F8B4
:103230000090B6B240F2FC47BE428ABF0B990E80A6
:10324000A1F800A00C990E88049904EB460707F535
:10325000E0571637B7F9009001FB0CFB4B4409FB14
:1032600008BB2BF3CF3B0FFA8BF9CDF8109009FB7D
:103270000EF929F3CF39914409F30F090136A7F864
:1032800000900C99B6B240F24B57BE4294BF0E80EC
:10329000A1F800A00D990E88079904EB460707F5E1
:1032A0001A572E37B7F9009001FB0CFB4B4409FB72
:1032B00008BB2BF3CF3B0FFA8BF9CDF81C9009FB21
:1032C0000EF929F3CF39914409F30F090136A7F814
:1032D00000900D99B6B240F28D57BE4294BF0E8059
:1032E000A1F800A00E990E88069904EB460707F591
:1032F00047570A37B7F9009001FB0CFB4B4409FB19
:1033000008BB2BF3CF3B0FFA8BF9CDF8189009FBD4
:103310000EF929F3CF39914409F30F090136A7F8C3
:1033200000900E99B6B240F2D257BE4294BF0E80C2
:10333000A1F800A00F990E88059904EB460707F540
:1033400075573037B7F9009001FB0CFB4B4409FB74
:1033500008BB2BF3CF3B0FFA8BF9CDF8149009FB88
:103360000EF929F3CF39914409F30F090136A7F873
:1033700000900F99B6B240F21467BE4294BF0E801F
:10338000A1F800A002990E88089904EB460707F5FA
:1033900093471A37B7F9009001FB0CF14B4409FB36
:1033A000081121F3CF3109B2089101FB0EF929F37D
:1033B000CF394A4402F30F020136B6B2B6F5CA6FEE
:1033C0003A808ABF029A0299A2F800A047F6E12249
:1033D00098BF0E8002FB03F323F34F4310990E882E
:1033E00004EB460707F5AC470FFA83F9B7F96220FB
:1033F00003EB6203A7F86230C9EB020222F34F022B
:103400000136B6B2B6F50B7F38BF0B46119938BFFF
:103410001E800E8828BF109B04EB460707F5B547B2
:1034200028BFA3F800A0B7F93A300FFA82F902EBEF
:1034300063027A87C9EB030323F34F030136B6B265
:10344000B6F5DC7F98BF0A46129998BF16800E88A1
:1034500088BF119A04EB460707F5BC4788BFA2F85E
:1034600000A0B7F92C200FFA83F903EB6203BB85A8
:10347000C9EB020222F34F020136B6B2B6F5AA7FBB
:1034800098BF0B46139998BF1E800E8888BF129B69
:1034900004EB460707F5C14788BFA3F800A0B7F9BA
:1034A00056300FFA82F902EB6302A7F85620C9EBF7
:1034B000030323F34F030136B6B2E02E96BF0A464C
:1034C000139A16801BB2C3EB031388BFA2F800A0A7
:1034D0005B0003F30F03099A22F8023F009B099255
:1034E000149A93427FF43AAE45F24C63BDF80C1047
:1034F000E15245F24E6245F2506645F25263A552E2
:10350000BDF81010A05345F25465E15245F25662E1
:10351000BDF81C30635345F25A60BDF81830A35211
:1035200045F25866BDF81430DDF820B0A35324F8F6
:1035300000B02046159C0022214606F0BDF820462A
:1035400006F090F81698199A90420AD01BB0BDE880
:10355000F04F06F087B80146204606F0C7F800286D
:10356000F4D11BB0BDE8F08F014B1993169389E598
:10357000D0D90900F8B50446674B0360002101204B
:1035800004F118020B46607222612172E16000E0D2
:10359000226942F82310627A01339A42F8DC5F4BC9
:1035A0001A680AB9B6E01A465369002BFBD1546178
:1035B000204600255A4B6561A580E580A572294605
:1035C00040F81C3B40F6B80208F0A2FD294640F640
:1035D000481204F6D40008F09BFD04F590502946EB
:1035E00040F6FA121C3008F093FD04F5E05029462D
:1035F00040F69822163008F08BFD04F51A50294643
:1036000040F61C322E3008F083FD04F54750294661
:1036100040F6A6320A3008F07BFD04F575502946C5
:1036200040F62A42303008F073FD04F593402946F5
:1036300040F6A2421A3008F06BFD45F23C6345F2B9
:103640003E6045F2406745F2426145F24462E55210
:1036500045F24666255245F2486345F24A60E55315
:10366000655245F24C67A55245F24E6145F25062F3
:10367000A553E55245F25266255245F2546345F290
:103680005660E553655245F25867A55245F25A61B6
:1036900045F25C62A553E55245F25E66255245F25D
:1036A000606341F69910E553655246F26767A05290
:1036B00046F6843204F5AC402946A7536230E25204
:1036C0004FF48B6208F024FD04F5B540294640F222
:1036D00072323A3008F01CFD04F5BC40294640F235
:1036E000AA222C3008F014FD04F5C14029464FF4FD
:1036F000E172563008F00CFD46F2982046F29A210D
:1037000046F29C2246F29E23255265522046A5523F
:10371000E552F8BD1C604BE7240301009C2B0120FF
:10372000DCDA09000020704700207047F8B5144C1F
:10373000037A242908BFC2805B0001250E4620467B
:10374000C1F30721174684F83B3084F85E5084F8B3
:103750005D5001F097FCF1B2204601F093FCC7F3F5
:103760000721204601F08EFCF9B2204601F08AFCC8
:103770002946204601F0F2FDB0FA80F04009F8BD7C
:10378000207F002070B5012604460671344801F000
:103790008DFC052004F088F8204644F260023021B8
:1037A000FFF7C4FF0546002858D06C22262120468A
:1037B000FFF7BCFF4FF4F97228212046FFF7B6FF50
:1037C00040F622722C212046FFF7B0FF44F2464219
:1037D0003C212046FFF7AAFF40F237122421204661
:1037E000FFF7A4FF44F2FF0230212046FFF79EFFBF
:1037F000732202212046FFF799FF4FF4C87004F0AE
:1038000053F841F61D522E212046FFF78FFF042268
:1038100011462046FFF78AFF4FF498720621204692
:10382000FFF784FF10220A212046FFF77FFF0022C6
:103830000E212046FFF77AFF43F63C421021204636
:10384000FFF774FF47F67F7222212046FFF76EFFD5
:10385000362224212046FFF769FF6672284670BD94
:10386000207F002010B5044619B1012911D0002095
:1038700010BD55222021FFF759FF0028F7D0E2881C
:1038800042F00402204692B22421BDE81040FFF726
:103890004DBF40F273122A21FFF748FF0028E6D0FF
:1038A000882220212046FFF741FF0028DFD0E28850
:1038B000204622F004022421BDE81040FFF736BF65
:1038C00038B50546F1B1802903799ABFC1F180046A
:1038D00044EA0424002433B9224628462221BDE8C4
:1038E0003840FFF723BFC288002322F01002037183
:1038F0002421FFF71BFF224628462221BDE838403D
:10390000FFF714BF0123037147F67F722221FFF7EF
:103910000DFFEA8842F01002284692B22421BDE849
:103920003840FFF703BF00BF9FED057ADFED057A52
:10393000E0EE077AFCEEE77A17EE901AFFF7C0BFC9
:1039400000000143EE7CFF3EF8B5037E102B0446D9
:103950004FF000014FD0204605F0D4FE0546002868
:1039600068D0637E012B57D9227E102A4FF00006C3
:103970002AD005EB4602B2F90470FBB1802E41D08B
:1039800005EB46000230324601E0802A3AD0237E21
:10399000C3F1100327FA03F101FA03F320F8023F01
:1039A0000132637E911B9942EFDB802A2AD01646B2
:1039B00005EB4602B2F90470002BDFD13246F4E782
:1039C0003246802A1ED0164605EB4602B2F9047034
:1039D000002BF5D0802E15D005EB46010231324682
:1039E00001E0802A0ED021F8027F0132637E901B15
:1039F0009842F6DBE5E7437E012BACD805F076FE76
:103A00000546B8B120462946002205F055FE284655
:103A1000BDE8F84005F026BE811C00F58170227ECD
:103A200031F9023FC2F110021341934088420B80EA
:103A3000F5D1E7E7F8BD00BF2DE9F8434FF00008E6
:103A4000064600F11805474641463046002F4FD044
:103A500005F04CFEF0B12C68B4F5803F07F104018D
:103A600000F1040E07F5827C27D05EF8042B34FBAE
:103A700002F334FB12F903F30F0209F30F03C2EA56
:103A800003430A6893FA12F341F8043B8C45ECD8DF
:103A900005F0E8FD08F10108B8F1040F05F104058F
:103AA000D2D1002F40D030463946002205F004FE26
:103AB0003846BDE8F84305F0D5BD07F10C0100F12B
:103AC0000C0451F8083C54F8082C93FA12F341F80E
:103AD000083C54F8042C51F8043C93FA12F38C453A
:103AE00041F8043C04F1080401F10801E9D8CFE7EA
:103AF00005F008FE07460028CCD02868B0F5803FC6
:103B0000C8D0391D07F582740B6830FB03F230FB17
:103B100013F302F30F0203F30F03C2EA034341F866
:103B2000043B8C42F0D8B5E7BDE8F88370B58469F2
:103B30002CB3B4F5803F06464FF0000125D005F0C8
:103B4000E1FD054600B3011D00F582700B6834FBF2
:103B500003F234FB13F302F30F0203F30F03C2EA81
:103B6000034341F8043B8842F0D8304600222946FE
:103B700005F0A2FD2846BDE8704005F073BD214662
:103B800005F0B4FD0028F6D170BD05F0AFFD044688
:103B90000028F9D030462146002205F08DFD204650
:103BA000BDE8704005F05EBD024A0349034807F0D6
:103BB000C9BE00BFB07D002021300000F0260120EA
:103BC0002DE9F8430021054605F09CFD012104463E
:103BD000284605F08BFD0646BCB3D0B304F5827EC3
:103BE000231D9E4524D90C3004F10C0111E90C0071
:103BF00050F8089C50F8048C12FB39FC2CF3CF3C95
:103C000012FB09F222F3CF32C2EA0C4213FB38FC5A
:103C10002CF3CF3C13FB08F323F3CF33C3EA0C435D
:103C20008E4501E90C0000F1080001F10801DDD822
:103C300028460022214605F03FFD204605F012FDF2
:103C40003046BDE8F84305F00DBD0028F9D1BDE8C8
:103C5000F8832046BDE8F84305F004BD024A034955
:103C6000034807F06FBE00BFB07D00202130000088
:103C7000F8260120024A0349034807F063BE00BF4B
:103C8000B07D0020213000000027012038B5074D0D
:103C9000074C08482A46214607F054FE2A4621468A
:103CA0000548BDE8384007F04DBE00BFB07D00209C
:103CB000213000000827012010270120024A034973
:103CC000034807F03FBE00BFB07D00202130000058
:103CD00018270120024A0349034807F033BE00BFFA
:103CE000B07D002021300000202701202DE9F04F79
:103CF00083B08846846A0190D0F81CC0D0F824A014
:103D0000C16A076BDDF8309008F58070264683465F
:103D100038F902EB4FEA0E3E5CFB17F401EB84042A
:103D20005AFB17F57644C4EB6606A6EB85065CFBEA
:103D300016F007EB80005CFB10F104EB81015AFBED
:103D400010F5C1EB0E07A7EB85055CFB15F700EB43
:103D500087070C4424F34F34384420F34F30354464
:103D600025F34F35C34522F8024B764623F8020B64
:103D700029F8025BCCD1019A1346C3F828E0D1623E
:103D8000176303B0BDE8F08F2DE9F04F85B088468A
:103D90008169019101460C460390006A0290D1F8B6
:103DA00024B08F6A206BC96ADDF838A0DDF83C903A
:103DB00008F58074009432F9026B029C06FB04F64D
:103DC00026F0784505F10065ED0055FB15F5284C0A
:103DD00055FB14F5ED00013CF616C6F106062C4421
:103DE0003441019D55FB14F4224D38F902CBAC420D
:103DF000A8BF2C4624024FEA0C3C54FB10F601EB02
:103E000086065BFB10F107EB0C0EC6EB6E0EAEEBFD
:103E1000810E54FB1EF500EB850554FB15F106EBF6
:103E200081015BFB15F0C1EB0C07A7EB800754FB8E
:103E300017F405EB84000E4426F34F36054425F3B2
:103E40004F35BE442EF34F3E009C23F8026B444591
:103E50002AF8025B674629F802EBACD1039A1346B5
:103E6000C3F828C0D162106305B0BDE8F08F00BF71
:103E7000ABAAAA2AE71052002DE9F043002183B033
:103E8000044605F033FC01210546204605F02EFCD2
:103E90000646002D3CD005F091FB074600283CD09B
:103EA00005F08CFB8046002842D005F087FB814658
:103EB000002851D0002E45D0021D08F104030192C4
:103EC000009320463B1D321D291DFFF75DFF304644
:103ED00005F0C8FB284605F0C5FB00223946204600
:103EE00005F0EAFB384605F0BDFB012241462046BD
:103EF00005F0E2FB404605F0B5FB204602224946AC
:103F000005F0DAFB484603B0BDE8F04305F0AABB74
:103F10000028F8D103B0BDE8F083284605F0A2FBE5
:103F2000002EF7D0304603B0BDE8F04305F09ABB51
:103F3000284605F097FB384605F094FB002EE9D0A3
:103F40003046F0E7031D00933A1D08F10403291DD4
:103F50002046FFF7CBFEBDE7284605F083FB384639
:103F600005F080FB404605F07DFB002ED2D03046A8
:103F7000D9E700BF024A0349034807F0E3BC00BF8A
:103F8000B07D00202130000028270120036A2DE9A0
:103F9000F04780464BB9D8F81830D8F81C2003EB0E
:103FA000C213C8F81830BDE8F08705F007FB0646D5
:103FB0000028F0D0D8F81890D8F81C70D8F820C095
:103FC000134D4946841C00F5817E0B0E5A1C35F9B1
:103FD000130035F91220C1F30F2ACAF5803300FB14
:103FE00003F30AFB023353FB0CF324F8023FA6450C
:103FF0003944EAD109EBC7174046C8F81870314672
:10400000002205F059FB3046BDE8F04705F02ABB19
:10401000C4DC0900024A0349034807F093BC00BF0F
:10402000B07D00202130000030270120024A0349E2
:10403000034807F087BC00BFB07D0020213000009E
:104040003827012090F82E30002B00F0DC802DE97D
:10405000F04FD0F820A09AF8043095B0002B00F073
:10406000D68000260676D0F82480836A0793828D56
:1040700090F82E30016B11900E910146406B10901C
:104080000846896B0F91C56B016C04910146406C29
:1040900008900846896C0991C46C016D0591014630
:1040A00092B2406D896D0A90DBB20B9103920D9331
:1040B00005F084FA1290002800F0B280129A13469C
:1040C000043302F5827293421393069280F0C68302
:1040D0009AF804C00C961F46E146B9F1000F04D1CE
:1040E000DAF81030434540F2B580DAF838306A1C0F
:1040F000AB42019280F0AC80049ADAF83C30089927
:10410000D31804935EBF049A6FF040439B1A099A38
:1041100048BF03F1804312EA230238BF0A460C99D4
:1041200053FB1212DAF848300399601C9C4202904B
:104130001DD90599DAF84C300A98CB1805935BBF66
:10414000059B6FF0404103F18041C91A00290B9B88
:10415000A8BF034651FB1322DAF85C30DAF85800A6
:10416000B8BF184651FB00F1039B31FB0331079B9D
:10417000DAF80800DAF8006007F1400E1A444B46FE
:10418000C0F12004F14605468E4619461FE0DAF8D4
:104190001000804555D228FA04FC08FA05F056F8BC
:1041A0001CC0000C30FB1CFBC0F57F40FF3030FB17
:1041B0000CBC3EFB0CFC9044A9BBDAF81000804517
:1041C0003FD2C3EA0C4347F8043B4F4539D028FAA5
:1041D00004F308FA05F056F81330000C30FB13FC1A
:1041E000C0F57F40FF3030FB03C33EFB03F3904438
:1041F0000029CCD0DAF81400804524BFDAF8180082
:10420000C0EB0808C7E7002380F82E307047426AE9
:10421000DAF810309A42FFF424AF002380F82E30F1
:1042200015B0BDE8F08FDAF81400804524BFDAF845
:104230001800C0EB0808C3EA0C4347F8043B4F459D
:10424000C5D1069BBB42894615D9029C019D44E716
:10425000002267E7069BBB423A46CC4640F26983A0
:104260000699634642F8043B9142FBD800230E9323
:10427000029401950D93CDF80C806FF0004ECDF8AF
:104280001CA0DDF818B0139BDDF84080DDF83890F5
:104290000F9A3AE008EB020C0CEB0204A718B818CE
:1042A0008618B1188D1809F1FF3905EB0208D3F80B
:1042B00000A03CFB0AFC34FB1AF464004FEA4C0CEF
:1042C000C4EA2C441C605C6837FB04F730FB14F034
:1042D00040007F00C0EA27475F60986836FB00F621
:1042E00031FB10F149007600C1EA26419960D96896
:1042F00035FB01F538FB11F149006D00C1EA25419C
:10430000D96010339B4540F2B682B9F1000FC1DC91
:104310000D990139052900F2AE82DFE811F006009F
:10432000F80166015401D7009600079AD2F824904C
:104330009B454FEAC9029EFBF2F240F28582B9F139
:10434000000F40F37D8202EB0805A818141811191C
:1043500002EB010C02EB0C0A02EB0A07089102EBDC
:10436000070809F1FF36196835FB01F530FB11F03C
:1043700040006D00C0EA25451D60586834FB00F41C
:10438000089931FB10F149006400C1EA24415960E9
:1043900099683CFB01F03AFB11F149004000C1EA89
:1043A00020419960D96837FB01F038FB11F14900D1
:1043B0004000C1EA204103F110008345D96040F27A
:1043C0008182002E00F0A28102EB080690191518D8
:1043D0005119541802EB040C02EB0C0AA9F1020962
:1043E00002EB0A081F6936FB07F630FB17F04000A6
:1043F0007600C0EA26461E61586935FB00F531FBA0
:1044000010F149006D00C1EA25415961996934FBF9
:1044100001F03CFB11F149004000C1EA20419961E3
:10442000D9693AFB01F038FB11F149004000C1EABB
:104430002041D96120339B4540F20682B9F1000F3B
:1044400040F3658102210D9124E70F92069ACDF881
:1044500040809A421393DDF80C80CDF8389006D94D
:104460000699139A002342F8043B9142FBD800239B
:104470000D93119A137EEBB99DF83410C2F8248085
:1044800082F82E100E991163109951630F99916360
:1044900092F82E30114603F0FF02002B00F0AB81A2
:1044A0000B460A460199D963049919640299D964A3
:1044B000059B1365129C11980022214605F0FCF81B
:1044C000204615B0BDE8F04F05F0CCB89B4540F252
:1044D000DA8108EB020C0CEB0204A718B818861856
:1044E000B1188D1805EB0208D3F800903CFB09FCCD
:1044F00034FB19F464004FEA4C0CC4EA2C441C60F1
:10450000D3F804C037FB0CF430FB1CF0400064000F
:10451000C0EA244058609C6836FB04F031FB14F17B
:1045200049004000C1EA20419960D96835FB01F09B
:1045300038FB11F149004000C1EA204103F11000AD
:104540008345D96040F2B48108EB0207D4191619EB
:1045500090191518511902EB010902EB0908D3F85B
:1045600010C037FB0CF734FB1CF464007F00C4EA76
:1045700027441C615F6936FB07F430FB17F04000ED
:104580006400C0EA244058619C6935FB04F031FBAB
:1045900014F149004000C1EA20419961D96939FB11
:1045A00001F038FB11F149004000C1EA2041D96116
:1045B00020339B4540F2A5810521DFF880930D91C2
:1045C00068E60346B146079A516B6FF00048C1EBAD
:1045D0000808B8F5004FC0F216819B4540F286816D
:1045E000002276E703466FF000480799D1F82C9037
:1045F000496B9B454FEAC902C1F1000090FBF2F202
:1046000040F22F81B9F1000FDFDD02EB0805A81899
:104610008418111901EB020C0CEB020A02EB0A07D9
:10462000089107EB020809F1FF36196835FB01F51F
:1046300030FB11F040006D00C0EA25451D60586850
:1046400034FB00F4089931FB10F149006400C1EA21
:104650002441596099683CFB01F03AFB11F1490093
:104660004000C1EA20419960D96837FB01F038FB6E
:1046700011F149004000C1EA204103F110008345D7
:10468000D96040F24881002E9BD008EB02069019B9
:104690008518A9188C1804EB020C02EB0C0AA9F17E
:1046A000020902EB0A081F6936FB07F630FB17F018
:1046B00040007600C0EA26461E61586935FB00F5C9
:1046C00031FB10F149006D00C1EA2541596199693A
:1046D00034FB01F03CFB11F149004000C1EA2041EC
:1046E0009961D9693AFB01F038FB11F149004000AA
:1046F000C1EA2041D96120339B4540F2B280B9F133
:10470000000F7FF760AF04210D91C3E50346079AC0
:104710009B45D2F8289040F2BF80B9F1000F40F3DA
:10472000838009F1FF3219683EFB01F03EFB11F175
:1047300049004000C1EA2041196059683EFB01F080
:104740003EFB11F149004000C1EA204159609968DF
:104750003EFB01F03EFB11F149004000C1EA20415F
:104760009960D9683EFB01F03EFB11F14900400021
:10477000C1EA204103F110008345D96040F2AB80CB
:10478000002A3FF42FAFA9F102091A693EFB02F19A
:104790003EFB12F252004900C2EA21421A615A69F4
:1047A0003EFB02F13EFB12F252004900C2EA2142F6
:1047B0005A619A693EFB02F13EFB12F25200490037
:1047C000C2EA21429A61DA693EFB02F13EFB12F233
:1047D00052004900C2EA2142DA6120339B4540F28F
:1047E000A380B9F1000F7FF7FEAE032100226FF026
:1047F00000480D914EE511984FF04043C264C263EA
:104800000365036456E6069A13939A424FF0000339
:10481000CDF84080CDF83890DDF80C800F933FF64E
:104820001FAE06230D9324E60799D1F82C90496B0F
:104830004FEAC90248426FF0004890FBF2F2E1E60D
:10484000079AD2F8289068E70223CDF84080CDF887
:104850003890DDF80C800F920D930AE602940195D2
:1048600007E60423CDF84080CDF83890DDF80C80C1
:104870000F920D93FDE5CDF84080CDF83890DDF82E
:104880000C800F92F5E56FF00043CDF840800F9259
:10489000DDF80C800E93ECE500230F936FF00043DE
:1048A00010930323DDF80C80CDF838900D93E0E5EC
:1048B000214B0E930523CDF840800F92DDF80C803C
:1048C0000D93D6E50223CDF840800F92DDF80C80E1
:1048D0000E960D93CDE5DDF80C800E926FF000433F
:1048E000109300230F9303230D93C2E500230F932E
:1048F0000523CDF84080CDF83890DDF80C800D937D
:10490000B7E50E4B0E930523CDF840800F92DDF8EE
:104910000C800D93ADE50423CDF840800F92DDF8B7
:104920000C800E960D93A4E5DDF80C80CDF8389040
:10493000D4E7029401959EE4FEFFFF7FFDFFFF7F19
:1049400072B690F82E3073B10622036A80F82E20DA
:104950001B6B0363036B43B1426B036B5242DB007F
:1049600092FBF3F3836362B6704701230363F3E7BB
:10497000036AD3ED037A27EE800AFCEEC07AC0ED1D
:104980000A7AD3ED107A60EE277AFDEEE77AC0ED71
:10499000117AD3ED117A60EE277AFDEEE77AC0ED59
:1049A000127AD3ED147A60EE277AFDEEE77AC0ED45
:1049B000157AD3ED157A20EE270ABDEEC00A80EDF8
:1049C000160A704738B572B60023C56980F82E30D4
:1049D0006C682478A14207DD01336C68E45C8C428A
:1049E000FADB03EB43035B01A9680B44036203B3E7
:1049F0000146FFF7BDFF4FF04044006A002302EB81
:104A0000C2124B6392008B634B62CB64CB630C6529
:104A10000C64036A0B6392B28A85828B8B8D92B28F
:104A20009BB203FB02F31B0C01228B8581F82E2025
:104A30000A7662B638BD00BF30B507EE901ADFEDDA
:104A40000C0AB8EEE77ADFED0B7A83B0E7EE270ABF
:104A500001910446B0EE000A154605F019FB0199D4
:104A60002A46204603B0BDE83040FFF7ABBF00BF89
:104A7000CC014240ABAAAA3D024A0349034806F0D2
:104A800061BF00BFB07D0020213000004027012021
:104A9000024A0349034806F055BF00BFB07D00201D
:104AA00021300000482701202DE9F84F334B3448CE
:104AB0001A68344912681B790B70824229D2324B32
:104AC0001B784BBBDFF8D0A0DFF8D090DFF8D080A8
:104AD000DFF8D0B0DAF80060D9F80070B8F800401C
:104AE000BBF80050002E3BD09FB33A1D311D02EBA6
:104AF000450201EB440102F08FF9403540347F2C30
:104B00001BD8A8F800407F2D0AD8ABF80050BDE8AC
:104B1000F88FA0F58070D5E71C4B01221A60D1E711
:104B200000243846ABF8004004F09CFD184B1A688E
:104B3000C9F800201C60BDE8F88F00243046A8F8B2
:104B4000004004F08FFD134B1A68CAF800201C6067
:104B5000D9E7311D01EB440102F07DF94034CEE785
:104B600037B1391D01EB450102F095F94035C6E733
:104B70004FF48072394607F0CBFAC0E75427012082
:104B8000A07000201F8000406C27012008E200E098
:104B90006827012070270120642701205C2701205D
:104BA000502701206027012070B50021044604F041
:104BB0009DFD80B172B61C4A1368002B29D01B4999
:104BC0000D6805B31A4E156000220860328062B687
:104BD000184604F047FD2046012104F087FD88B106
:104BE00072B6144A1368CBB113490C6874B1134DF3
:104BF0001460002208602A8062B61846BDE8704042
:104C000004F030BD70BD086062B6E4E7086062B6CB
:104C100070BD074910600B8062B6DCE70749106081
:104C20000B8062B670BD00BF642701207027012091
:104C3000502701205C2701206827012060270120E0
:104C4000284B29491A68294842F400421A600A6828
:104C500042F002020A601A6842F002021A60036817
:104C6000002B3EDB224B1B68002B3ADB214A4FF026
:104C7000804313601368002BFCDBF0B51E4C1F480B
:104C8000DFF8A8E01E491F4B1F4A204F204E214D40
:104C90004FF2FE0CC4F800C0002404600120CEF8DE
:104CA0000000DFF88CE0C1F800E04FF480311960BB
:104CB000194B1360DFF87CE0184A3A6034602860D2
:104CC00000F18E40CEF80000154CB9671548164922
:104CD00046F8503C4FF4C0632A61236003600B60C8
:104CE000F0BD70473C8004404080044000F002402A
:104CF00080F0024000F1024004F1024060F0024006
:104D000008F002400CF0024010F0024014F00240A3
:104D1000E0F0024084F002401B1F0100001F1F1F33
:104D200008B004400CB0044018B0044004F0024045
:104D30000100000788F00240F8B5274C274E2046B6
:104D4000012103F097FD264A264B002515601D60C2
:104D5000FFF776FF244B254A25494FF4C0601860C1
:104D6000236802201A6098802279196102F180423A
:104D700002F5043240F20117DF80DE604FF48071EB
:104D800006278D26D9829D82D9839D619F83986055
:104D90001570167004F04AFD2279164B16491870EA
:104DA00053119B00174603F160430F70134D144ECF
:104DB000144C02F11000012103F5614302F01F02BF
:104DC00001FA02F24FF080770F492F602C6046F80D
:104DD00020101A60F8BD00BF5427012000FEFFFF1D
:104DE000642701205C27012004B00440A06F00204C
:104DF00022F002406C2701201B80004000F002409E
:104E00000072002001000090A94A0000024A0349F4
:104E1000034806F097BD00BFB07D002021300000A0
:104E200054270120024A0349034806F08BBD00BF06
:104E3000B07D002021300000742701202DE9F84FBB
:104E4000478B848B0137B7F5507F26BF00252F464F
:104E5000BDB2A742064600F096800021304604F01D
:104E600045FC07F11003A74246F82300758380F044
:104E70009E8007F550752B1BF58BAB4212D95D1B3D
:104E80004FF0000906EB84080134D8F8400018B14F
:104E900004F0E8FBC8F84090B4F5507F28BF002428
:104EA000013DEFD10025B48306F120082C460DE02A
:104EB00009F1100956F8291019B1EAB2304604F088
:104EC000FBFB0135082D08F104085AD0337E2B4135
:104ED000DB07F6D5D8F800204FEAD2194F4538BF86
:104EE00007F5507302F07F0B2CBFC9EB0709C9EB24
:104EF0000309BBF1000FDBD004F060FB8246002801
:104F0000DFD0031DB9F1000F53D140F23F32103210
:104F100056F82220002A53D002F5827EAEEB4B0BCE
:104F2000DE450FD90AF102015A4632F9020B21F887
:104F3000020F9645F9D86FEA0B02724422F0010283
:104F40000232134409F110090AF5827056F829203B
:104F5000002A4DD0834202F1040205D232F9021B2D
:104F600023F8021B9842F9D8EAB25146304604F0C1
:104F7000A3FB0135504604F075FB082D08F1040829
:104F8000A4D1BDE8F88F00EB8708D8F8400008B13D
:104F900004F068FB7C1CB4F5507F7FF45EAF002109
:104FA000304604F0A3FB0024C8F8400075833B1B87
:104FB00062E709F1FF32103256F82220002AABD105
:104FC00003EB4B029342BDD2194621F8024B8A42B1
:104FD000FBD8CAEB0202053A22F0010209F11009DE
:104FE0000232134456F829200AF58270002AB1D102
:104FF0008342B9D223F8024B9842FBD8B4E700BFF2
:1050000090F8392090F83800101A704790F838302E
:1050100090F839209A4205D95A1C034480F8382068
:10502000187E70474FF0FF30704700BF90F838305F
:1050300090F839209A4286BF1B18187E4FF0FF3037
:10504000704700BF704700BF38B50546B0F85E0036
:1050500090B195F85D301446C3F1210294420CD80A
:1050600005F13B001844224601F052FF95F85D30EF
:10507000234485F85D30204638BD01201446287150
:10508000EEE700BFB0F85E306BB190F85D30202BDA
:1050900007D8C218013380F85D30012082F83B1038
:1050A0007047012303710020704700BF002342694D
:1050B00080F8383080F8393080F85C3080F85D3026
:1050C00080F85E3080F85F3006CA30B40D6804693D
:1050D00043662A4383660A60A370426990F8613090
:1050E0001649146813441D7A5B7B01EBC5051B024E
:1050F0006D6803F4E06343F064032B6090F8623062
:1051000013449D7CDB7D01EBC5011B02496803F460
:10511000E06343F064030B6021685368194205D0D3
:1051200003692C225A70036904229A7103692022B0
:105130005A71036980229A7030BC704710DF0900F1
:1051400038B50269D478E4B2E106054624D51023C7
:10515000D37063061FD504F0040404F0FF03002C91
:105160005AD042496A6E00230B7085F85D30002AE0
:1051700066D0904795F85D30002B61D02B69D02226
:105180009A702B6995F83B201A712B69012285F8DA
:105190005C200222DA7038BD04F0400303F0FF0007
:1051A000002BD8D19379DBB203F0600160294ED097
:1051B000937803F0100303F0FF01B3B114F001047E
:1051C00037D195F85C3095F85D1099424BD9591C50
:1051D0002B4485F85C1093F83B3013712B69D02277
:1051E0009A702B690222DA70D5E785F860109379FE
:1051F00043F0200393712B6995F839101A791F2910
:10520000D2B2C6D8194800780028C2D06818013137
:1052100085F839100276BCE72A6985F83930C02351
:1052200093702B69114A1979012111700222DA70E9
:10523000B1E7C02393702B691A790222DA70AAE7CA
:105240000122002385F85D2085F83B3096E703F0C6
:10525000DF039371AB6E23B185F8380095F8390000
:1052600098472A69A4E71471B8E700BF7C2701209A
:105270002DE9F047374FDFF8E0903B68026982B0D4
:1052800006460093DDF8008000214FF49675D37830
:105290009B065BD53B680193019BC8EB03030F2B77
:1052A000F5D949B1102BF2D00020907033698022DB
:1052B0009A7002B0BDE8F087726996F861301344C5
:1052C0000521187A02F0C6FA726996F86130134423
:1052D000012193F812A0504602F0BCFA09240021E3
:1052E000504602F0A3FA2B46013BFDD10121504666
:1052F00002F09CFA2B46013BFDD1013CEFD17069D5
:1053000096F8611001444FF416720C7A4B7B09EB4E
:10531000C4011B02496803F4E06343F064030B60BB
:1053200096F862300344997CDB7D09EBC1011B02D6
:10533000496803F4E06343F064030B60013AFDD174
:105340003269D3789B064FF00101A3D4012002B04B
:10535000BDE8F087142A012010DF0900F0B50369C9
:105360001222DA700269937803F0200385B00446B4
:105370000D46002B5ED0B42393703C4922690B6824
:105380000093009E05E00B680193019B9B1B042B7F
:1053900042D8D37803F0200303F0FF00002BF2D0B3
:1053A00094F85D30002B31D04FF0000E4FF0020C1E
:1053B00004EB0E0393F83B3013710B680393039FC8
:1053C000206907E09B060DD50B680293029BDB1B4F
:1053D000052B28D8C378DBB203F0020202F0FF06E7
:1053E000002AEFD080F803C02669F378DBB2DF062D
:1053F00032462DD49F062BD5DB0731D40EF1010E9A
:1054000094F85D305FFA8EFE7345D1D800201DBB45
:10541000002384F85E3004E09070236980229A7043
:10542000042005B0F0BD86702369802204209A70A4
:1054300005B0F0BD03F0FF06FFF71AFF10B9042016
:1054400005B0F0BD236984F85F60B0229A7094E7DC
:105450008023B3700420DAE726698023B370D7E78E
:10546000BEF1000F0CBF02200320F6E7142A012032
:105470002DE9F04106690025122780F8385080F8A0
:105480003950F770D0F810C09CF802E00EF0200EF2
:1054900088B00446884615461E46BEF1000F49D026
:1054A000B4238CF802307A4B21691A680092DDF837
:1054B00000E006E01A6801920198CEEB0000042893
:1054C00030D8C87800F0200000F0FF070028F1D0A5
:1054D0004FEA480242F00102D2B20A711A680292FF
:1054E000DDF808E0206906E01A6803920399CEEB24
:1054F000010105292AD8C17801F0020101F0FF0756
:105500000029F1D04FF0020C80F803C02269D17855
:1055100011F0110722D12DBB002E0CBFA023802338
:10552000937003E08F70236980229A70384608B028
:10553000BDE8F0810EF0FF07FFF79AFE0028F5D0D6
:10554000236984F85F70B0229A70ACE78770236992
:10555000802238469A7008B0BDE8F08180239370AD
:105560000027E3E7012D78D0A021917021690A7905
:10557000BE4667464FF0A80C1A680492049805E0EE
:105580001A680592059A121A052A4DD8CA7802F0AF
:10559000020202F0FF08002AF2D0CF702169CA7817
:1055A000D2B212F0100F08465DD192065BD5013DD4
:1055B000EDB2012D4CD0BEF11F0F3ED90A79012D5D
:1055C000DAD11A680692069D05E01A680792079AD2
:1055D000521B052A56D8C27802F0020202F0FF01DF
:1055E000002AF2D00223C3702269D378DBB2D90635
:1055F0003BD49B0637D5B023BEF11F0F937043D821
:10560000226904EB0E0312791A760EF1010E5FFA8D
:105610008EFE00BF00BF00BF16B1236980229A70C2
:1056200084F839E0774681E781F802802369802297
:105630009A70774684F839E078E704EB0E0291F827
:10564000048082F818800EF1010E5FFA8EFEB6E734
:1056500081F802C021690846ADE7A8219170206950
:10566000BE460279ADE7774660E710214FF49673A6
:10567000D170013BFDD12269937803F0F70377469F
:10568000937053E78170D1E723691B79C1E700BFAD
:10569000142A01200148FFF753BD00BF207F0020DE
:1056A0000148FFF74DBD00BF8C7F00200148FFF788
:1056B00047BD00BFB47E002010B4047F4160022CBF
:1056C000C26003D05DF8044B03F056B983685DF8FF
:1056D000044B1847F0B4464B464A986B5C6B017913
:1056E0001170454922790A701A6B00790870002AF6
:1056F00046D05968C9688A423ED82168CC8B2404B8
:1057000002F1FF3065D4C0F30E00C883C88B80B2AD
:10571000C882996B0968C88B000452D4C2F30E008A
:10572000C883C88B002480B212F1FF32C88218BF30
:1057300001221C63596B2E4809680D6800F12C0486
:10574000A54236D00068C46814F0804F0C680D681C
:1057500015BF248824780235013544F000440D60DB
:105760004463996B254B09791970214912B14A6B31
:1057700012791A70F0BC7047521A1A630122D9E7E5
:10578000D86B196805681E4C0A63CC62CC682D681A
:105790001C4E24F080440327B542CC6083F82D7062
:1057A0001FD1037F4260022BC2601ED0F0BC03F009
:1057B000E3B8016890F82C00CC6840F000404863E2
:1057C000CFE7CC8BC2F3080004F47E442043C883A7
:1057D000A7E7CC8BC0F3080004F47E442043C883C1
:1057E00094E72B461146F0BC18478368F0BC184775
:1057F000F87F00201F8000401C8000401B8000407C
:1058000000000FFFB9560000064B074ADA6202217A
:10581000002259609A7083F8242083F8302083F89E
:10582000322070478027012088DC090070B51A4CAF
:1058300023780BB9012070BD184D194B28681968E1
:105840000378FE2B17D0174A00F0FCFD88B1164EE6
:10585000316819B900232370012070BD28680378CE
:10586000FE2B0FD00F4A00F0EDFD10B10023336086
:10587000F0E7002070BD0B4800F0C2F9B0FA80F0EC
:105880004009E3E7074800F0BBF9B0FA80F04009AF
:105890000028EBD1EDE700BFDC290120D82701204B
:1058A00038800020DC270120D427012070B5124D5C
:1058B0002B6883420E4611D00446FFF7B7FF08B9A4
:1058C000002070BD0D4B18680378FE2B0CD00C4ADD
:1058D000214600F0F1FC0028F2D02C60094B197829
:1058E00031431970012070BD2146054800F028F9A8
:1058F000B0FA80F04009EEE738800020D827012078
:10590000DC270120DC290120F8B590F82030C4699B
:10591000102B1A4B05460E4617461B6816D004EB93
:10592000D1149C4216D106F07F06154A42F8267023
:105930001449287E0A78012842F001020A7018D919
:10594000A968114A0B4413600120F8BD04EB11242F
:105950009C4208D000212046FFF7A8FF50B195F8DF
:105960002030102B07D1F6B2054A234622F81670D4
:10597000DEE70120F8BD2346D5E700BF38800020D0
:10598000DC270120DC290120D4270120C368013352
:105990008B4218D370B590F82030102B154B04466D
:1059A00016460D46C0691B680FD000EBD110984217
:1059B0000FD105F07F01104B53F8213023F07043D5
:1059C0003360012070BD0020704700EB1120984229
:1059D00007D00021FFF76AFF50B194F82030102B58
:1059E000E7D1E9B2044B33F811303360012070BDC8
:1059F000002070BD38800020DC2701202DE9F04F09
:105A0000176883B06FB301374FF0000AC36803F122
:105A1000010813B38B46064691463C46002505E037
:105A20001C461F46F3680135AB4216D9A04538BF66
:105A30000224214601AA304638BF2746FFF7A6FFB9
:105A4000631CD91B48B1019A002AE9D18B4510D0BB
:105A50001C46F3680135AB42E8D8002003B0BDE82E
:105A6000F08FA1F1010ABAFA8AFA07684FEA5A1AC6
:105A7000CCE7012CF1D9F36801339C42EDD86FF0EB
:105A8000704221463046FFF73FFF0028E5D0A7428D
:105A900014D2013C012CE0D9F36801339C42DCD8DC
:105AA000621C21463046FFF72FFF0028D5D0A742C1
:105AB00004F1FF3402D0012CEED1CEE7D9F800106A
:105AC00059B10129C9D9F36801339942C5D83A4679
:105AD0003046FFF719FF0028BFD0C9F80070BAF1AF
